{
  "_format": "hh-sol-artifact-1",
  "contractName": "Exchange",
  "sourceName": "contracts/Exchange.sol",
  "abi": [
    {
      "inputs": [
        {
          "internalType": "address",
          "name": "_system",
          "type": "address"
        }
      ],
      "stateMutability": "nonpayable",
      "type": "constructor"
    },
    {
      "anonymous": false,
      "inputs": [
        {
          "indexed": false,
          "internalType": "bytes32",
          "name": "orderId",
          "type": "bytes32"
        }
      ],
      "name": "OrderCancelled",
      "type": "event"
    },
    {
      "anonymous": false,
      "inputs": [
        {
          "indexed": false,
          "internalType": "bytes32",
          "name": "orderId",
          "type": "bytes32"
        },
        {
          "indexed": false,
          "internalType": "address",
          "name": "maker",
          "type": "address"
        },
        {
          "indexed": false,
          "internalType": "address",
          "name": "token0",
          "type": "address"
        },
        {
          "indexed": false,
          "internalType": "address",
          "name": "token1",
          "type": "address"
        },
        {
          "indexed": false,
          "internalType": "uint256",
          "name": "amount",
          "type": "uint256"
        },
        {
          "indexed": false,
          "internalType": "uint216",
          "name": "_exchangeRate",
          "type": "uint216"
        },
        {
          "indexed": false,
          "internalType": "bool",
          "name": "buy",
          "type": "bool"
        },
        {
          "indexed": false,
          "internalType": "uint32",
          "name": "salt",
          "type": "uint32"
        }
      ],
      "name": "OrderCreated",
      "type": "event"
    },
    {
      "anonymous": false,
      "inputs": [
        {
          "indexed": false,
          "internalType": "bytes32",
          "name": "orderId",
          "type": "bytes32"
        },
        {
          "indexed": false,
          "internalType": "address",
          "name": "taker",
          "type": "address"
        },
        {
          "indexed": false,
          "internalType": "uint256",
          "name": "fillAmount",
          "type": "uint256"
        }
      ],
      "name": "OrderExecuted",
      "type": "event"
    },
    {
      "anonymous": false,
      "inputs": [
        {
          "indexed": false,
          "internalType": "bytes32",
          "name": "orderId",
          "type": "bytes32"
        },
        {
          "indexed": false,
          "internalType": "uint256",
          "name": "amount",
          "type": "uint256"
        },
        {
          "indexed": false,
          "internalType": "uint256",
          "name": "_exchangeRate",
          "type": "uint256"
        }
      ],
      "name": "OrderUpdated",
      "type": "event"
    },
    {
      "anonymous": false,
      "inputs": [
        {
          "indexed": false,
          "internalType": "bytes32",
          "name": "pairId",
          "type": "bytes32"
        },
        {
          "indexed": false,
          "internalType": "address",
          "name": "token0",
          "type": "address"
        },
        {
          "indexed": false,
          "internalType": "address",
          "name": "token1",
          "type": "address"
        },
        {
          "indexed": false,
          "internalType": "uint256",
          "name": "exchangeRateDecimals",
          "type": "uint256"
        },
        {
          "indexed": false,
          "internalType": "uint256",
          "name": "minToken0Order",
          "type": "uint256"
        },
        {
          "indexed": false,
          "internalType": "uint256",
          "name": "minToken1Order",
          "type": "uint256"
        }
      ],
      "name": "PairCreated",
      "type": "event"
    },
    {
      "inputs": [
        {
          "internalType": "bytes",
          "name": "signature",
          "type": "bytes"
        },
        {
          "components": [
            {
              "internalType": "address",
              "name": "maker",
              "type": "address"
            },
            {
              "internalType": "address",
              "name": "token0",
              "type": "address"
            },
            {
              "internalType": "address",
              "name": "token1",
              "type": "address"
            },
            {
              "internalType": "uint256",
              "name": "amount",
              "type": "uint256"
            },
            {
              "internalType": "bool",
              "name": "buy",
              "type": "bool"
            },
            {
              "internalType": "uint32",
              "name": "salt",
              "type": "uint32"
            },
            {
              "internalType": "uint216",
              "name": "exchangeRate",
              "type": "uint216"
            }
          ],
          "internalType": "struct IExchange.Order",
          "name": "order",
          "type": "tuple"
        }
      ],
      "name": "cancelOrder",
      "outputs": [],
      "stateMutability": "nonpayable",
      "type": "function"
    },
    {
      "inputs": [
        {
          "internalType": "address",
          "name": "token",
          "type": "address"
        },
        {
          "internalType": "address",
          "name": "cToken",
          "type": "address"
        }
      ],
      "name": "enableMarginTrading",
      "outputs": [],
      "stateMutability": "nonpayable",
      "type": "function"
    },
    {
      "inputs": [
        {
          "internalType": "bytes",
          "name": "signature",
          "type": "bytes"
        },
        {
          "components": [
            {
              "internalType": "address",
              "name": "maker",
              "type": "address"
            },
            {
              "internalType": "address",
              "name": "token0",
              "type": "address"
            },
            {
              "internalType": "address",
              "name": "token1",
              "type": "address"
            },
            {
              "internalType": "uint256",
              "name": "amount",
              "type": "uint256"
            },
            {
              "internalType": "bool",
              "name": "long",
              "type": "bool"
            },
            {
              "internalType": "uint32",
              "name": "salt",
              "type": "uint32"
            },
            {
              "internalType": "uint176",
              "name": "exchangeRate",
              "type": "uint176"
            },
            {
              "internalType": "uint32",
              "name": "borrowLimit",
              "type": "uint32"
            },
            {
              "internalType": "uint8",
              "name": "loops",
              "type": "uint8"
            }
          ],
          "internalType": "struct IExchange.LeverageOrder",
          "name": "order",
          "type": "tuple"
        },
        {
          "internalType": "uint256",
          "name": "amountToFill",
          "type": "uint256"
        }
      ],
      "name": "executeLeverageOrder",
      "outputs": [
        {
          "internalType": "uint256",
          "name": "",
          "type": "uint256"
        }
      ],
      "stateMutability": "nonpayable",
      "type": "function"
    },
    {
      "inputs": [
        {
          "internalType": "bytes",
          "name": "signature",
          "type": "bytes"
        },
        {
          "components": [
            {
              "internalType": "address",
              "name": "maker",
              "type": "address"
            },
            {
              "internalType": "address",
              "name": "token0",
              "type": "address"
            },
            {
              "internalType": "address",
              "name": "token1",
              "type": "address"
            },
            {
              "internalType": "uint256",
              "name": "amount",
              "type": "uint256"
            },
            {
              "internalType": "bool",
              "name": "buy",
              "type": "bool"
            },
            {
              "internalType": "uint32",
              "name": "salt",
              "type": "uint32"
            },
            {
              "internalType": "uint216",
              "name": "exchangeRate",
              "type": "uint216"
            }
          ],
          "internalType": "struct IExchange.Order",
          "name": "order",
          "type": "tuple"
        },
        {
          "internalType": "uint256",
          "name": "amountToFill",
          "type": "uint256"
        }
      ],
      "name": "executeLimitOrder",
      "outputs": [
        {
          "internalType": "uint256",
          "name": "",
          "type": "uint256"
        }
      ],
      "stateMutability": "nonpayable",
      "type": "function"
    },
    {
      "inputs": [
        {
          "internalType": "bytes",
          "name": "signature",
          "type": "bytes"
        },
        {
          "components": [
            {
              "internalType": "address",
              "name": "maker",
              "type": "address"
            },
            {
              "internalType": "address",
              "name": "token0",
              "type": "address"
            },
            {
              "internalType": "address",
              "name": "token1",
              "type": "address"
            },
            {
              "internalType": "uint256",
              "name": "amount",
              "type": "uint256"
            },
            {
              "internalType": "bool",
              "name": "long",
              "type": "bool"
            },
            {
              "internalType": "uint32",
              "name": "salt",
              "type": "uint32"
            },
            {
              "internalType": "uint176",
              "name": "exchangeRate",
              "type": "uint176"
            },
            {
              "internalType": "uint32",
              "name": "borrowLimit",
              "type": "uint32"
            },
            {
              "internalType": "uint8",
              "name": "loops",
              "type": "uint8"
            }
          ],
          "internalType": "struct IExchange.LeverageOrder",
          "name": "order",
          "type": "tuple"
        },
        {
          "internalType": "uint256",
          "name": "amountToFill",
          "type": "uint256"
        }
      ],
      "name": "executeReverseLeverageOrder",
      "outputs": [
        {
          "internalType": "uint256",
          "name": "",
          "type": "uint256"
        }
      ],
      "stateMutability": "nonpayable",
      "type": "function"
    },
    {
      "inputs": [
        {
          "internalType": "address",
          "name": "token0",
          "type": "address"
        },
        {
          "internalType": "address",
          "name": "token1",
          "type": "address"
        }
      ],
      "name": "getPairHash",
      "outputs": [
        {
          "internalType": "bytes32",
          "name": "",
          "type": "bytes32"
        }
      ],
      "stateMutability": "pure",
      "type": "function"
    },
    {
      "inputs": [
        {
          "internalType": "bytes32",
          "name": "digest",
          "type": "bytes32"
        }
      ],
      "name": "loopFill",
      "outputs": [
        {
          "internalType": "uint256",
          "name": "",
          "type": "uint256"
        }
      ],
      "stateMutability": "view",
      "type": "function"
    },
    {
      "inputs": [
        {
          "internalType": "bytes32",
          "name": "digest",
          "type": "bytes32"
        }
      ],
      "name": "loops",
      "outputs": [
        {
          "internalType": "uint256",
          "name": "",
          "type": "uint256"
        }
      ],
      "stateMutability": "view",
      "type": "function"
    },
    {
      "inputs": [
        {
          "internalType": "bytes32",
          "name": "pair",
          "type": "bytes32"
        }
      ],
      "name": "minToken0Amount",
      "outputs": [
        {
          "internalType": "uint256",
          "name": "",
          "type": "uint256"
        }
      ],
      "stateMutability": "view",
      "type": "function"
    },
    {
      "inputs": [
        {
          "internalType": "bytes32",
          "name": "digest",
          "type": "bytes32"
        }
      ],
      "name": "orderFills",
      "outputs": [
        {
          "internalType": "uint256",
          "name": "",
          "type": "uint256"
        }
      ],
      "stateMutability": "view",
      "type": "function"
    },
    {
      "inputs": [
        {
          "internalType": "bytes32",
          "name": "orderId",
          "type": "bytes32"
        }
      ],
      "name": "placedOrders",
      "outputs": [
        {
          "components": [
            {
              "internalType": "address",
              "name": "maker",
              "type": "address"
            },
            {
              "internalType": "address",
              "name": "token0",
              "type": "address"
            },
            {
              "internalType": "address",
              "name": "token1",
              "type": "address"
            },
            {
              "internalType": "uint256",
              "name": "amount",
              "type": "uint256"
            },
            {
              "internalType": "bool",
              "name": "buy",
              "type": "bool"
            },
            {
              "internalType": "uint32",
              "name": "salt",
              "type": "uint32"
            },
            {
              "internalType": "uint216",
              "name": "exchangeRate",
              "type": "uint216"
            }
          ],
          "internalType": "struct IExchange.Order",
          "name": "",
          "type": "tuple"
        }
      ],
      "stateMutability": "view",
      "type": "function"
    },
    {
      "inputs": [
        {
          "internalType": "uint256",
          "name": "amount",
          "type": "uint256"
        },
        {
          "internalType": "uint256",
          "name": "borrowLimit",
          "type": "uint256"
        },
        {
          "internalType": "uint256",
          "name": "loop",
          "type": "uint256"
        }
      ],
      "name": "scaledByBorrowLimit",
      "outputs": [
        {
          "internalType": "uint256",
          "name": "",
          "type": "uint256"
        }
      ],
      "stateMutability": "pure",
      "type": "function"
    },
    {
      "inputs": [],
      "name": "system",
      "outputs": [
        {
          "internalType": "contract System",
          "name": "",
          "type": "address"
        }
      ],
      "stateMutability": "view",
      "type": "function"
    },
    {
      "inputs": [
        {
          "internalType": "bytes",
          "name": "signature",
          "type": "bytes"
        },
        {
          "components": [
            {
              "internalType": "address",
              "name": "maker",
              "type": "address"
            },
            {
              "internalType": "address",
              "name": "token0",
              "type": "address"
            },
            {
              "internalType": "address",
              "name": "token1",
              "type": "address"
            },
            {
              "internalType": "uint256",
              "name": "amount",
              "type": "uint256"
            },
            {
              "internalType": "bool",
              "name": "long",
              "type": "bool"
            },
            {
              "internalType": "uint32",
              "name": "salt",
              "type": "uint32"
            },
            {
              "internalType": "uint176",
              "name": "exchangeRate",
              "type": "uint176"
            },
            {
              "internalType": "uint32",
              "name": "borrowLimit",
              "type": "uint32"
            },
            {
              "internalType": "uint8",
              "name": "loops",
              "type": "uint8"
            }
          ],
          "internalType": "struct IExchange.LeverageOrder",
          "name": "order",
          "type": "tuple"
        }
      ],
      "name": "verifyLeverageOrderHash",
      "outputs": [
        {
          "internalType": "bytes32",
          "name": "",
          "type": "bytes32"
        }
      ],
      "stateMutability": "view",
      "type": "function"
    },
    {
      "inputs": [
        {
          "internalType": "bytes",
          "name": "signature",
          "type": "bytes"
        },
        {
          "components": [
            {
              "internalType": "address",
              "name": "maker",
              "type": "address"
            },
            {
              "internalType": "address",
              "name": "token0",
              "type": "address"
            },
            {
              "internalType": "address",
              "name": "token1",
              "type": "address"
            },
            {
              "internalType": "uint256",
              "name": "amount",
              "type": "uint256"
            },
            {
              "internalType": "bool",
              "name": "buy",
              "type": "bool"
            },
            {
              "internalType": "uint32",
              "name": "salt",
              "type": "uint32"
            },
            {
              "internalType": "uint216",
              "name": "exchangeRate",
              "type": "uint216"
            }
          ],
          "internalType": "struct IExchange.Order",
          "name": "order",
          "type": "tuple"
        }
      ],
      "name": "verifyOrderHash",
      "outputs": [
        {
          "internalType": "bytes32",
          "name": "",
          "type": "bytes32"
        }
      ],
      "stateMutability": "view",
      "type": "function"
    }
  ],
  "bytecode": "0x610140346200018157601f6200220938819003918201601f19168301926001600160401b03929091838511838610176200016b5781602092849260409788528339810103126200018157516001600160a01b0381169081900362000181578251906200006b8262000186565b60048252600160208301637a65786560e01b8152602086516200008e8162000186565b8381520193603160f81b855251902092208260e052610100948186524660a05280519060208201927f8b73c3c69bb8fe3d512ecc4cf759cc79239f7b179b0ffacaa9a75d522b39400f958685528284015260608301524660808301523060a083015260a0825260c0820195828710908711176200016b578590525190206080523060c052610120918252600080546001600160a01b0319169190911790556120669283620001a3843960805183611c8a015260a05183611d55015260c05183611c54015260e05183611cd901525182611cff01525181611cb60152f35b634e487b7160e01b600052604160045260246000fd5b600080fd5b604081019081106001600160401b038211176200016b5760405256fe6080604052600436101561001257600080fd5b60003560e01c80630b5d301714610b1d5780631251cd4514610af95780631e41be5a146109f357806327a741501461099b5780634b3bb0a2146109825780634d6688e1146105285780635728e161146104fc5780635d3f53561461037d578063611fbb60146102a357806395bf75fd1461027a578063bb30ef161461024e578063bed29b6314610222578063caea68b014610126578063d7b7961c146100f25763f7213db6146100c157600080fd5b346100ed5760203660031901126100ed5760043560005260036020526020604060002054604051908152f35b600080fd5b346100ed5760403660031901126100ed57602061011e610110611044565b61011861105a565b9061170a565b604051908152f35b346100ed576101403660031901126100ed576004356001600160401b0381116100ed57610157903690600401610ffd565b6101203660231901126100ed5760405161017081610fa5565b6001600160a01b0360243581811681036100ed57825260443581811681036100ed57602083015260643590811681036100ed576040820152608435606082015260a43580151581036100ed57608082015263ffffffff60c43581811681036100ed5760a083015260e4356001600160b01b03811681036100ed5760c08301526101043590811681036100ed5760e0820152610124359060ff821682036100ed5760209261011e92610100830152611d7b565b346100ed5760203660031901126100ed5760043560005260046020526020604060002054604051908152f35b346100ed5760203660031901126100ed5760043560005260026020526020604060002054604051908152f35b346100ed5760003660031901126100ed576000546040516001600160a01b039091168152602090f35b346100ed576101203660031901126100ed576004356001600160401b0381116100ed576102d4903690600401610ffd565b60e03660231901126100ed57604051906102ed82610f74565b6001600160a01b0360243581811681036100ed57835260443581811681036100ed57602084015260643590811681036100ed576040830152608435606083015260a43580151581036100ed57608083015260c43563ffffffff811681036100ed5760a083015260e435906001600160d81b03821682036100ed578261011e9260c06020950152610104359161123f565b346100ed5760403660031901126100ed57610396611044565b61039e61105a565b600054604051638da5cb5b60e01b8152602093926001600160a01b039290919085908290600490829087165afa801561049e5783916000916104df575b501633036104aa578382806004931694169384600052600682526040600020816bffffffffffffffffffffffff60a01b82541617905560405192838092636f307dc360e01b82525afa90811561049e57600091610471575b50160361043c57005b6064906040519062461bcd60e51b82526004820152600e60248201526d24b73b30b634b21031aa37b5b2b760911b6044820152fd5b6104919150843d8611610497575b6104898183610fc1565b8101906116eb565b84610433565b503d61047f565b6040513d6000823e3d90fd5b60405162461bcd60e51b815260048101859052600d60248201526c139bdd105d5d1a1bdc9a5e9959609a1b6044820152606490fd5b6104f69150863d8811610497576104898183610fc1565b866103db565b346100ed5760203660031901126100ed5760043560005260056020526020604060002054604051908152f35b346100ed5761053636611070565b6020808301516001600160a01b039081166000908152600690925260408083205481860151831684529220549181169492939291169061058d90839061057d871515611690565b610588841515611690565b611d7b565b908160005260056020526040600020545b600160ff610100860151160160ff81116108635760ff16811015610975576105d681606086015163ffffffff60e08801511690611ffc565b948360005260046020526105ef60406000205487611670565b808210156109705750805b60018060a01b038651169133608088015115610968575b6020888101516040516323b872dd60e01b81526001600160a01b0384811660048301528781166024830152604482018790529096929187916064918391600091165af191821561049e576106db9560209361094b575b5060408a015160c08b01516001600160a01b039091169190600090670de0b6b3a76400009061069f906001600160b01b03168961167d565b6040516323b872dd60e01b81526001600160a01b0396871660048201529390951660248401529093046044820152958692839182906064820190565b03925af192831561049e576107109361091c575b508560005260046020526040600020610709838254611663565b9055611670565b8095846000526004602052604060002054148061090a575b610750575b156107405761073b906116dc565b61059e565b5050505060209150604051908152f35b620f424061076e60406000205463ffffffff60e0890151169061167d565b0483670de0b6b3a764000061078f60018060b01b0360c08a0151168461167d565b0489918360808a01516108cf575b5088516040516361d8983f60e01b81526001600160a01b0390911660048201526024810192909252602090829081600081604481015b03926001600160a01b03165af1801561049e576108a4575b508651604051635267b05560e11b81526001600160a01b039182166004820152602481019390935260209183916044918391600091165af1801561049e57610879575b50836000526005602052604060002080546001810181116108635760010190558360005260046020526000604081205561072d565b634e487b7160e01b600052601160045260246000fd5b602090813d831161089d575b61088f8183610fc1565b810103126100ed578761082e565b503d610885565b602090813d83116108c8575b6108ba8183610fc1565b810103126100ed57896107eb565b503d6108b0565b60c08a01518c95508894506107d3935060209250670de0b6b3a764000090610900906001600160b01b03168361167d565b049491509161079d565b5060ff61010086015116821415610728565b61093d9060203d602011610944575b6109358183610fc1565b810190611227565b50896106ef565b503d61092b565b61096190843d8611610944576109358183610fc1565b508c610667565b503392610611565b6105fa565b505050506020915061011e565b346100ed57602061011e61099536611162565b906118ce565b346100ed577f5152abf959f6564662358c2e52b702259b78bac5ee7842a0f01937e670efcc7d60206109d960606109d136611162565b8093916118ce565b9101518160005260038352604060002055604051908152a1005b346100ed5760203660031901126100ed57600060c0604051610a1481610f74565b8281528260208201528260408201528260608201528260808201528260a08201520152600435600052600160205260e06040600020604051610a5581610f74565b60018060a01b03908183541692838252826001820154169060208301918252836002820154169060408401918252600460038201549160608601928352015494608085019260ff8716151584528160a087019560c063ffffffff98898b60081c168952019860281c8952604051998a5251166020890152511660408701525160608601525115156080850152511660a083015260018060d81b0390511660c0820152f35b346100ed5760603660031901126100ed57602061011e604435602435600435611ffc565b346100ed57610b2b36611070565b6020828101516001600160a01b0390811660009081526006909252604080832054818601518316845292205481169491169290610b69908290611d7b565b908160005260056020526040600020545b60ff61010083015116811015610f6657606082015163ffffffff60e0840151169060018301831161086357610bb3916001840191611ffc565b93836000526004602052604060002054948515610ddd575b610bd58682611670565b80831015610dd75750815b602085015160408601518651608088015160c08901516000946001600160b01b0391909116936001600160a01b039384169390811692339290911690849015610dca575b506040516323b872dd60e01b81526001600160a01b03808416600483015285166024820152604481018a9052956020918791829081606481015b03925af193841561049e57670de0b6b3a7640000610c8b600092610cc798602098610dad575b508b61167d565b6040516323b872dd60e01b81526001600160a01b0396871660048201529390951660248401529093046044820152938492839182906064820190565b03925af1801561049e57610d0292610cfa928692610d8e575b508860005260046020526040600020610709838254611663565b928397611663565b14610d5a575b60208301516040840151610d28916001600160a01b03918216911661170a565b600052600260205260406000205411610d4957610d44906116dc565b610b7a565b505050905060209150604051908152f35b8360005260056020526040600020805460018101811161086357600101905583600052600460205260006040812055610d08565b610da69060203d602011610944576109358183610fc1565b508c610ce0565b610dc390893d8b11610944576109358183610fc1565b5038610c84565b3394509150610c5e610c24565b91610be0565b60c0840180516001600160b01b03918a9184918b91670de0b6b3a7640000908190610e0a9088168661167d565b049560808b015115610f44575b505050620f42409082828102048214831517156108635763ffffffff60e08a015116908115610f2e5789516040516361d8983f60e01b81526001600160a01b03919091166004820152939092020460248301526020908290816000816044810103926001600160a01b03165af1801561049e57610f03575b508551604051635267b05560e11b81526001600160a01b039182166004820152602481019390935260209183916044918391600091165af1801561049e57610ed8575b50610bcb565b602090813d8311610efc575b610eee8183610fc1565b810103126100ed5788610ed2565b503d610ee4565b602090813d8311610f27575b610f198183610fc1565b810103126100ed578a610e8f565b503d610f0f565b634e487b7160e01b600052601260045260246000fd5b925093509350610f5991508b9351168461167d565b04889083928c8080610e17565b50505090506020915061011e565b60e081019081106001600160401b03821117610f8f57604052565b634e487b7160e01b600052604160045260246000fd5b61012081019081106001600160401b03821117610f8f57604052565b90601f801991011681019081106001600160401b03821117610f8f57604052565b6001600160401b038111610f8f57601f01601f191660200190565b81601f820112156100ed5780359061101482610fe2565b926110226040519485610fc1565b828452602083830101116100ed57816000926020809301838601378301015290565b600435906001600160a01b03821682036100ed57565b602435906001600160a01b03821682036100ed57565b906101606003198301126100ed576004356001600160401b0381116100ed5761109f8361012092600401610ffd565b9260231901126100ed576040516110b581610fa5565b6001600160a01b0360243581811681036100ed57825260443581811681036100ed57602083015260643590811681036100ed576040820152608435606082015260a43580151581036100ed57608082015263ffffffff60c43581811681036100ed5760a083015260e4356001600160b01b03811681036100ed5760c08301526101043590811681036100ed5760e08201526101243560ff811681036100ed57610100820152906101443590565b906101006003198301126100ed576004356001600160401b0381116100ed576111908360e092600401610ffd565b9260231901126100ed576040516111a681610f74565b6001600160a01b0360243581811681036100ed57825260443581811681036100ed57602083015260643590811681036100ed576040820152608435606082015260a43580151581036100ed57608082015260c43563ffffffff811681036100ed5760a082015260e4356001600160d81b03811681036100ed5760c082015290565b908160209103126100ed575180151581036100ed5790565b919081156116145760608101908151156115c35760c08101805190936001600160d81b0393909184161561157257602083810180516001600160a01b039792959291908816156115385760409687840199898b5116156114ff57898351168a8c5116146114af57898551161561147757846112b9916118ce565b986000968a8852600389526112d38a892054809851611670565b8082101561146f57509a5b8b1561146057908b95949392916112f58789611663565b8c8a5260038b528b8a2055818651169360803397015115611456575b518b516323b872dd60e01b8082526001600160a01b038981166004840152871660248301526044820199909952908b90829060649082908e9088165af1801561144c578b979695948f9194670de0b6b3a76400009461137d948e9761142f575b5051169651169061167d565b8b519788526001600160a01b0393841660048901529490921660248701529204604485015283916064918391905af180156114255792856113ed89606098957fe96da7d7f9b1253f3f855c25f35f32d0a83a96c1a75acdecf0f3bc7cc3bb1ccf9a98958298611408575b50611663565b9186815260038452205581519384523390840152820152a190565b61141e90873d8911610944576109358183610fc1565b50386113e7565b85513d85823e3d90fd5b611445908c8d3d10610944576109358183610fc1565b5038611371565b8c513d8c823e3d90fd5b9395503393611311565b50505050505050935050505090565b90509a6112de565b885162461bcd60e51b81526004810189905260116024820152701b585ad95c881b5d5cdd081899481cd95d607a1b6044820152606490fd5b885162461bcd60e51b815260048101899052602360248201527f746f6b656e3020616e6420746f6b656e31206d75737420626520646966666572604482015262195b9d60ea1b6064820152608490fd5b885162461bcd60e51b81526004810189905260126024820152711d1bdad95b8c481b5d5cdd081899481cd95d60721b6044820152606490fd5b60405162461bcd60e51b81526004810187905260126024820152711d1bdad95b8c081b5d5cdd081899481cd95d60721b6044820152606490fd5b60405162461bcd60e51b8152602060048201526024808201527f65786368616e67652072617465206d75737420626520677265617465722074686044820152630616e20360e41b6064820152608490fd5b60405162461bcd60e51b815260206004820152602360248201527f6f7264657220616d6f756e74206d75737420626520677265617465722074686160448201526206e20360ec1b6064820152608490fd5b60405162461bcd60e51b815260206004820152602160248201527f66696c6c416d6f756e74206d7573742062652067726561746572207468616e206044820152600360fc1b6064820152608490fd5b9190820180921161086357565b9190820391821161086357565b8181029291811591840414171561086357565b1561169757565b60405162461bcd60e51b815260206004820152601a60248201527f4d617267696e2074726164696e67206e6f7420656e61626c65640000000000006044820152606490fd5b60001981146108635760010190565b908160209103126100ed57516001600160a01b03811681036100ed5790565b6040519060208201926bffffffffffffffffffffffff19809260601b16845260601b16603482015260288152606081018181106001600160401b03821117610f8f5760405251902090565b1561175c57565b60405162461bcd60e51b815260206004820152602260248201527f6f72646572416d6f756e74206d7573742062652067726561746572207468616e604482015261020360f41b6064820152608490fd5b156117b357565b60405162461bcd60e51b815260206004820152602360248201527f65786368616e676552617465206d75737420626520677265617465722074686160448201526206e20360ec1b6064820152608490fd5b1561180b57565b60405162461bcd60e51b8152602060048201526016602482015275496e76616c696420746f6b656e30206164647265737360501b6044820152606490fd5b1561185057565b60405162461bcd60e51b8152602060048201526016602482015275496e76616c696420746f6b656e31206164647265737360501b6044820152606490fd5b1561189557565b60405162461bcd60e51b8152602060048201526011602482015270696e76616c6964207369676e617475726560781b6044820152606490fd5b9060608101906118e082511515611755565b60c081019260018060d81b03916118fb8386511615156117ac565b602081019360018060a01b0395611916878751161515611804565b6040830194611929888751161515611849565b8780808651169851169651169251608085015115159163ffffffff60a087015116935116936040519760208901997f72947dbb8d2ba67a74e333a748b7a9619ef219198f5cec602fd6d3211397dfbf8b5260408a01526060890152608088015260a087015260c086015260e08501526101009081850152835261012083018381106001600160401b03821117610f8f576119df946119da946119d092604052519020611c0a565b94859151166119e2565b61188e565b90565b6119ec8383611b1d565b6005811015611b0757159081611af1575b50611ae9576040519260209384810191630b135d3f60e11b948584526024830152604060448301528051908160648401528660005b838110611ad4575050509181611a6860848286600083819a9899829a010152601f80199101168101036064810184520182610fc1565b51915afa913d15611acd573d611a7d81610fe2565b90611a8b6040519283610fc1565b81523d60008383013e5b83611ac2575b83611aa7575b50505090565b9080929350818051810103126100ed57015114388080611aa1565b805182149350611a9b565b6060611a95565b81818401015160848287010152018790611a32565b505050600190565b6001600160a01b038381169116149050386119fd565b634e487b7160e01b600052602160045260246000fd5b906041815114600014611b4b57611b47916020820151906060604084015193015160001a90611b55565b9091565b5050600090600290565b9291907f7fffffffffffffffffffffffffffffff5d576e7357a4501ddfe92f46681b20a08311611bfe5760ff16601b81141580611bf3575b611be7579160809493916020936040519384528484015260408301526060820152600093849182805260015afa15611bda5781516001600160a01b03811615611bd4579190565b50600190565b50604051903d90823e3d90fd5b50505050600090600490565b50601c811415611b8d565b50505050600090600390565b611c12611c51565b9060405190602082019261190160f01b84526022830152604282015260428152608081018181106001600160401b03821117610f8f5760405251902090565b307f00000000000000000000000000000000000000000000000000000000000000006001600160a01b03161480611d52575b15611cac577f000000000000000000000000000000000000000000000000000000000000000090565b60405160208101907f000000000000000000000000000000000000000000000000000000000000000082527f000000000000000000000000000000000000000000000000000000000000000060408201527f000000000000000000000000000000000000000000000000000000000000000060608201524660808201523060a082015260a0815260c081018181106001600160401b03821117610f8f5760405251902090565b507f00000000000000000000000000000000000000000000000000000000000000004614611c83565b6060820191611d8c83511515611755565b60c0810180516001600160b01b0390611da890821615156117ac565b60e083019163ffffffff918284511615611fac57620f4240838551161015611f5d576101009687860160ff81511615611f18576020870180516001600160a01b039a91978b96909291611dfe9088161515611804565b8960409687820199898b51161515611e1590611849565b898c51169960009a8b526006602052808a8c2054161515611e3590611690565b808c51168b526006602052808a8c2054161515611e5190611690565b80808551169d51169b511697519181608085015115159460a0015116945116955116955160ff169688519a60208c019c7f4b5ce9bff05b2eb1b04a66685b9bbe715805ee88470a2d38bc2068b29b9566618e528a8d015260608c015260808b015260a08a015260c089015260e0880152860152610120850152610140908185015283526101608301918383106001600160401b03841117611f045750525190206119df926119da9290916119d090611c0a565b634e487b7160e01b81526041600452602490fd5b60405162461bcd60e51b815260206004820152601f60248201527f6c65766572616765206d7573742062652067726561746572207468616e2030006044820152606490fd5b60405162461bcd60e51b815260206004820152602160248201527f626f72726f774c696d6974206d757374206265206c657373207468616e2031656044820152601b60f91b6064820152608490fd5b60405162461bcd60e51b815260206004820152602260248201527f626f72726f774c696d6974206d7573742062652067726561746572207468616e604482015261020360f41b6064820152608490fd5b916000915b81831061200e5750505090565b909192620f4240612022836120299361167d565b04936116dc565b919061200156fea2646970667358221220c5fca652cea804bb6533ebec1654063662c5df48e244cc5faecc95376c81ce4364736f6c63430008110033",
  "linkReferences": {},
  "deployedLinkReferences": {}
}