{
  "_format": "hh-sol-artifact-1",
  "contractName": "Exchange",
  "sourceName": "contracts/Exchange.sol",
  "abi": [
    {
      "inputs": [],
      "stateMutability": "nonpayable",
      "type": "constructor"
    },
    {
      "anonymous": false,
      "inputs": [
        {
          "indexed": false,
          "internalType": "address",
          "name": "token",
          "type": "address"
        },
        {
          "indexed": false,
          "internalType": "address",
          "name": "cToken",
          "type": "address"
        }
      ],
      "name": "MarginEnabled",
      "type": "event"
    },
    {
      "anonymous": false,
      "inputs": [
        {
          "indexed": false,
          "internalType": "bytes32",
          "name": "orderId",
          "type": "bytes32"
        }
      ],
      "name": "OrderCancelled",
      "type": "event"
    },
    {
      "anonymous": false,
      "inputs": [
        {
          "indexed": false,
          "internalType": "bytes32",
          "name": "orderId",
          "type": "bytes32"
        },
        {
          "indexed": false,
          "internalType": "address",
          "name": "maker",
          "type": "address"
        },
        {
          "indexed": false,
          "internalType": "address",
          "name": "token0",
          "type": "address"
        },
        {
          "indexed": false,
          "internalType": "address",
          "name": "token1",
          "type": "address"
        },
        {
          "indexed": false,
          "internalType": "uint256",
          "name": "amount",
          "type": "uint256"
        },
        {
          "indexed": false,
          "internalType": "uint216",
          "name": "_exchangeRate",
          "type": "uint216"
        },
        {
          "indexed": false,
          "internalType": "bool",
          "name": "buy",
          "type": "bool"
        },
        {
          "indexed": false,
          "internalType": "uint32",
          "name": "salt",
          "type": "uint32"
        }
      ],
      "name": "OrderCreated",
      "type": "event"
    },
    {
      "anonymous": false,
      "inputs": [
        {
          "indexed": false,
          "internalType": "bytes32",
          "name": "orderId",
          "type": "bytes32"
        },
        {
          "indexed": false,
          "internalType": "address",
          "name": "taker",
          "type": "address"
        },
        {
          "indexed": false,
          "internalType": "uint256",
          "name": "fillAmount",
          "type": "uint256"
        }
      ],
      "name": "OrderExecuted",
      "type": "event"
    },
    {
      "anonymous": false,
      "inputs": [
        {
          "indexed": false,
          "internalType": "bytes32",
          "name": "orderId",
          "type": "bytes32"
        },
        {
          "indexed": false,
          "internalType": "uint256",
          "name": "amount",
          "type": "uint256"
        },
        {
          "indexed": false,
          "internalType": "uint256",
          "name": "_exchangeRate",
          "type": "uint256"
        }
      ],
      "name": "OrderUpdated",
      "type": "event"
    },
    {
      "anonymous": false,
      "inputs": [
        {
          "indexed": true,
          "internalType": "address",
          "name": "previousOwner",
          "type": "address"
        },
        {
          "indexed": true,
          "internalType": "address",
          "name": "newOwner",
          "type": "address"
        }
      ],
      "name": "OwnershipTransferred",
      "type": "event"
    },
    {
      "anonymous": false,
      "inputs": [
        {
          "indexed": false,
          "internalType": "bytes32",
          "name": "pairId",
          "type": "bytes32"
        },
        {
          "indexed": false,
          "internalType": "address",
          "name": "token0",
          "type": "address"
        },
        {
          "indexed": false,
          "internalType": "address",
          "name": "token1",
          "type": "address"
        },
        {
          "indexed": false,
          "internalType": "uint256",
          "name": "exchangeRateDecimals",
          "type": "uint256"
        },
        {
          "indexed": false,
          "internalType": "uint256",
          "name": "minToken0Order",
          "type": "uint256"
        },
        {
          "indexed": false,
          "internalType": "uint256",
          "name": "minToken1Order",
          "type": "uint256"
        }
      ],
      "name": "PairCreated",
      "type": "event"
    },
    {
      "inputs": [
        {
          "internalType": "bytes",
          "name": "signature",
          "type": "bytes"
        },
        {
          "components": [
            {
              "internalType": "address",
              "name": "maker",
              "type": "address"
            },
            {
              "internalType": "address",
              "name": "token0",
              "type": "address"
            },
            {
              "internalType": "address",
              "name": "token1",
              "type": "address"
            },
            {
              "internalType": "uint256",
              "name": "amount",
              "type": "uint256"
            },
            {
              "internalType": "enum IExchange.OrderType",
              "name": "orderType",
              "type": "uint8"
            },
            {
              "internalType": "uint32",
              "name": "salt",
              "type": "uint32"
            },
            {
              "internalType": "uint176",
              "name": "exchangeRate",
              "type": "uint176"
            },
            {
              "internalType": "uint32",
              "name": "borrowLimit",
              "type": "uint32"
            },
            {
              "internalType": "uint8",
              "name": "loops",
              "type": "uint8"
            }
          ],
          "internalType": "struct IExchange.Order",
          "name": "order",
          "type": "tuple"
        }
      ],
      "name": "cancelOrder",
      "outputs": [],
      "stateMutability": "nonpayable",
      "type": "function"
    },
    {
      "inputs": [
        {
          "internalType": "address",
          "name": "token",
          "type": "address"
        },
        {
          "internalType": "address",
          "name": "cToken",
          "type": "address"
        },
        {
          "internalType": "uint256",
          "name": "minAmount",
          "type": "uint256"
        }
      ],
      "name": "enableMarginTrading",
      "outputs": [],
      "stateMutability": "nonpayable",
      "type": "function"
    },
    {
      "inputs": [
        {
          "internalType": "bytes[]",
          "name": "signatures",
          "type": "bytes[]"
        },
        {
          "components": [
            {
              "internalType": "address",
              "name": "maker",
              "type": "address"
            },
            {
              "internalType": "address",
              "name": "token0",
              "type": "address"
            },
            {
              "internalType": "address",
              "name": "token1",
              "type": "address"
            },
            {
              "internalType": "uint256",
              "name": "amount",
              "type": "uint256"
            },
            {
              "internalType": "enum IExchange.OrderType",
              "name": "orderType",
              "type": "uint8"
            },
            {
              "internalType": "uint32",
              "name": "salt",
              "type": "uint32"
            },
            {
              "internalType": "uint176",
              "name": "exchangeRate",
              "type": "uint176"
            },
            {
              "internalType": "uint32",
              "name": "borrowLimit",
              "type": "uint32"
            },
            {
              "internalType": "uint8",
              "name": "loops",
              "type": "uint8"
            }
          ],
          "internalType": "struct IExchange.Order[]",
          "name": "orders",
          "type": "tuple[]"
        },
        {
          "internalType": "uint256",
          "name": "token0AmountToFill",
          "type": "uint256"
        }
      ],
      "name": "executeLimitOrders",
      "outputs": [],
      "stateMutability": "nonpayable",
      "type": "function"
    },
    {
      "inputs": [
        {
          "internalType": "bytes[]",
          "name": "signatures",
          "type": "bytes[]"
        },
        {
          "components": [
            {
              "internalType": "address",
              "name": "maker",
              "type": "address"
            },
            {
              "internalType": "address",
              "name": "token0",
              "type": "address"
            },
            {
              "internalType": "address",
              "name": "token1",
              "type": "address"
            },
            {
              "internalType": "uint256",
              "name": "amount",
              "type": "uint256"
            },
            {
              "internalType": "enum IExchange.OrderType",
              "name": "orderType",
              "type": "uint8"
            },
            {
              "internalType": "uint32",
              "name": "salt",
              "type": "uint32"
            },
            {
              "internalType": "uint176",
              "name": "exchangeRate",
              "type": "uint176"
            },
            {
              "internalType": "uint32",
              "name": "borrowLimit",
              "type": "uint32"
            },
            {
              "internalType": "uint8",
              "name": "loops",
              "type": "uint8"
            }
          ],
          "internalType": "struct IExchange.Order[]",
          "name": "orders",
          "type": "tuple[]"
        },
        {
          "internalType": "uint256",
          "name": "token1AmountToFill",
          "type": "uint256"
        }
      ],
      "name": "executeMarketOrders",
      "outputs": [],
      "stateMutability": "nonpayable",
      "type": "function"
    },
    {
      "inputs": [
        {
          "internalType": "bytes32",
          "name": "digest",
          "type": "bytes32"
        }
      ],
      "name": "loopFill",
      "outputs": [
        {
          "internalType": "uint256",
          "name": "",
          "type": "uint256"
        }
      ],
      "stateMutability": "view",
      "type": "function"
    },
    {
      "inputs": [
        {
          "internalType": "bytes32",
          "name": "digest",
          "type": "bytes32"
        }
      ],
      "name": "loops",
      "outputs": [
        {
          "internalType": "uint256",
          "name": "",
          "type": "uint256"
        }
      ],
      "stateMutability": "view",
      "type": "function"
    },
    {
      "inputs": [],
      "name": "makerFee",
      "outputs": [
        {
          "internalType": "uint256",
          "name": "",
          "type": "uint256"
        }
      ],
      "stateMutability": "view",
      "type": "function"
    },
    {
      "inputs": [
        {
          "internalType": "address",
          "name": "token",
          "type": "address"
        }
      ],
      "name": "minTokenAmount",
      "outputs": [
        {
          "internalType": "uint256",
          "name": "",
          "type": "uint256"
        }
      ],
      "stateMutability": "view",
      "type": "function"
    },
    {
      "inputs": [
        {
          "internalType": "bytes32",
          "name": "digest",
          "type": "bytes32"
        }
      ],
      "name": "orderFills",
      "outputs": [
        {
          "internalType": "uint256",
          "name": "",
          "type": "uint256"
        }
      ],
      "stateMutability": "view",
      "type": "function"
    },
    {
      "inputs": [],
      "name": "owner",
      "outputs": [
        {
          "internalType": "address",
          "name": "",
          "type": "address"
        }
      ],
      "stateMutability": "view",
      "type": "function"
    },
    {
      "inputs": [],
      "name": "renounceOwnership",
      "outputs": [],
      "stateMutability": "nonpayable",
      "type": "function"
    },
    {
      "inputs": [
        {
          "internalType": "uint256",
          "name": "amount",
          "type": "uint256"
        },
        {
          "internalType": "uint256",
          "name": "borrowLimit",
          "type": "uint256"
        },
        {
          "internalType": "uint256",
          "name": "loop",
          "type": "uint256"
        }
      ],
      "name": "scaledByBorrowLimit",
      "outputs": [
        {
          "internalType": "uint256",
          "name": "",
          "type": "uint256"
        }
      ],
      "stateMutability": "pure",
      "type": "function"
    },
    {
      "inputs": [],
      "name": "takerFee",
      "outputs": [
        {
          "internalType": "uint256",
          "name": "",
          "type": "uint256"
        }
      ],
      "stateMutability": "view",
      "type": "function"
    },
    {
      "inputs": [
        {
          "internalType": "address",
          "name": "newOwner",
          "type": "address"
        }
      ],
      "name": "transferOwnership",
      "outputs": [],
      "stateMutability": "nonpayable",
      "type": "function"
    },
    {
      "inputs": [
        {
          "components": [
            {
              "internalType": "address",
              "name": "maker",
              "type": "address"
            },
            {
              "internalType": "address",
              "name": "token0",
              "type": "address"
            },
            {
              "internalType": "address",
              "name": "token1",
              "type": "address"
            },
            {
              "internalType": "uint256",
              "name": "amount",
              "type": "uint256"
            },
            {
              "internalType": "enum IExchange.OrderType",
              "name": "orderType",
              "type": "uint8"
            },
            {
              "internalType": "uint32",
              "name": "salt",
              "type": "uint32"
            },
            {
              "internalType": "uint176",
              "name": "exchangeRate",
              "type": "uint176"
            },
            {
              "internalType": "uint32",
              "name": "borrowLimit",
              "type": "uint32"
            },
            {
              "internalType": "uint8",
              "name": "loops",
              "type": "uint8"
            }
          ],
          "internalType": "struct IExchange.Order",
          "name": "order",
          "type": "tuple"
        }
      ],
      "name": "validateOrder",
      "outputs": [
        {
          "internalType": "bool",
          "name": "",
          "type": "bool"
        }
      ],
      "stateMutability": "view",
      "type": "function"
    },
    {
      "inputs": [
        {
          "internalType": "bytes",
          "name": "signature",
          "type": "bytes"
        },
        {
          "components": [
            {
              "internalType": "address",
              "name": "maker",
              "type": "address"
            },
            {
              "internalType": "address",
              "name": "token0",
              "type": "address"
            },
            {
              "internalType": "address",
              "name": "token1",
              "type": "address"
            },
            {
              "internalType": "uint256",
              "name": "amount",
              "type": "uint256"
            },
            {
              "internalType": "enum IExchange.OrderType",
              "name": "orderType",
              "type": "uint8"
            },
            {
              "internalType": "uint32",
              "name": "salt",
              "type": "uint32"
            },
            {
              "internalType": "uint176",
              "name": "exchangeRate",
              "type": "uint176"
            },
            {
              "internalType": "uint32",
              "name": "borrowLimit",
              "type": "uint32"
            },
            {
              "internalType": "uint8",
              "name": "loops",
              "type": "uint8"
            }
          ],
          "internalType": "struct IExchange.Order",
          "name": "order",
          "type": "tuple"
        }
      ],
      "name": "verifyOrderHash",
      "outputs": [
        {
          "internalType": "bytes32",
          "name": "",
          "type": "bytes32"
        }
      ],
      "stateMutability": "view",
      "type": "function"
    }
  ],
  "bytecode": "0x61014080604052346101735761001481610178565b60048152600160208201637a65786560e01b8152602060405161003681610178565b8381520192603160f81b845251902091208160e052610100918183524660a0526040519160208301907f8b73c3c69bb8fe3d512ecc4cf759cc79239f7b179b0ffacaa9a75d522b39400f92838352604085015260608401524660808401523060a084015260a0835260c083019280841060018060401b0385111761015d5760408490525190206080523060c05261012090815260008054336001600160a01b0319821681178355916001600160a01b03909116907f8be0079c531659141344cd1fd0a4f28419497f9722a3daafe3b4186f6b6457e09080a3670de0b6b3a764000080600655600755611d5092836200019484396080518361182b015260a051836118f7015260c051836117f5015260e0518361187a015251826118a0015251816118570152f35b634e487b7160e01b600052604160045260246000fd5b600080fd5b604081019081106001600160401b0382111761015d5760405256fe6040608081526004908136101561001557600080fd5b600091823560e01c9081631251cd451461081b5781631bceb8d4146107df57816338b786a31461068f57816343f0179b146106705781634ca58b111461064d5781635728e16114610626578163715018a6146105cc5781637ddd6daf146104de5781638da5cb5b146104b6578163973b03e61461045f578163bed29b6314610437578163d212ae5214610358578163e290ea8a146101e3578163f2fde38b14610120578163f7213db6146100f4575063fc741c7c146100d357600080fd5b346100f057816003193601126100f0576020906006549051908152f35b5080fd5b90503461011c57602036600319011261011c5760209282913581526002845220549051908152f35b8280fd5b90503461011c57602036600319011261011c5761013b610843565b90610144610bf8565b6001600160a01b0391821692831561019157505082546001600160a01b0319811683178455167f8be0079c531659141344cd1fd0a4f28419497f9722a3daafe3b4186f6b6457e08380a380f35b906020608492519162461bcd60e51b8352820152602660248201527f4f776e61626c653a206e6577206f776e657220697320746865207a65726f206160448201526564647265737360d01b6064820152fd5b8390346100f0576101f336610a41565b9290916102038151845114610c50565b845b83518110156102d557670de0b6b3a7640000808602958087048214901517156103455760c0956001600160b01b039061024e908289610244878b610cd5565b5101511690610f8e565b60806102658161025e878b610cd5565b5101610cff565b8781101561033257159081156102fd575b506102c092916102ab91156102dd576102a581610293888a610cd5565b5161029e898d610cd5565b5190610d47565b90610d22565b976102b68589610cd5565b5101511687610f7b565b0494156102d5576102d090610cb0565b610205565b505050505080f35b6102a5816102eb888a610cd5565b516102f6898d610cd5565b5190610fae565b61030c915061025e868a610cd5565b8681101561031f576001146102c0610276565b634e487b7160e01b8a526021875260248afd5b634e487b7160e01b8b526021885260248bfd5b634e487b7160e01b875260118452602487fd5b828434610430576101203660031901126104305781519261037884610872565b6001600160a01b03813581811681036104335785526024358181168103610433576020860152604435908116810361011c57838501526064356060850152608435908110156100f057608084015263ffffffff60a435818116810361011c5760a085015260c4356001600160b01b038116810361011c5760c085015260e43590811681036100f05760e0840152610104359060ff82168203610430575082610427916101006020950152611969565b90519015158152f35b80fd5b8380fd5b90503461011c57602036600319011261011c5760209282913581526003845220549051908152f35b5050346100f05760206104a07f5152abf959f6564662358c2e52b702259b78bac5ee7842a0f01937e670efcc7d9260606104983661093b565b809491611472565b920151828652600284528186205551908152a180f35b5050346100f057816003193601126100f057905490516001600160a01b039091168152602090f35b8334610430576104ed36610a41565b906104fb8351825114610c50565b83915b81518310156105625760806105178161025e8686610cd5565b878110156105b95715908115610584575b5061054c91901561056b576102a5816105418688610cd5565b5161029e8787610cd5565b9182156105625761055c90610cb0565b916104fe565b50505050905080f35b6102a5816105798688610cd5565b516102f68787610cd5565b610593915061025e8585610cd5565b868110156105a65760011461054c610528565b634e487b7160e01b865260218752602486fd5b634e487b7160e01b875260218852602487fd5b83346104305780600319360112610430576105e5610bf8565b80546001600160a01b03198116825581906001600160a01b03167f8be0079c531659141344cd1fd0a4f28419497f9722a3daafe3b4186f6b6457e08280a380f35b90503461011c57602036600319011261011c57602092818392358252845220549051908152f35b5050346100f0576020906106696106633661093b565b90611472565b9051908152f35b5050346100f057816003193601126100f0576020906007549051908152f35b8383346100f05760603660031901126100f0576106aa610843565b6001600160a01b03939060243585811691908290036107db5785906106cd610bf8565b169182855260209560058752848620836bffffffffffffffffffffffff60a01b8254161790558451636f307dc360e01b815287818481875afa9081156107d157908592918891610791575b50160361075d57508394827f51d94f40b0b92318fe811ce606c1fb8b340724e59936221206e511d53f2be885955260018152604435848720558351928352820152a180f35b835162461bcd60e51b8152908101869052600e60248201526d24b73b30b634b21031aa37b5b2b760911b6044820152606490fd5b80929350898092503d83116107ca575b6107ab81836108a5565b810103126107c6575181811681036107c65790849189610718565b8680fd5b503d6107a1565b86513d89823e3d90fd5b8480fd5b5050346100f05760203660031901126100f057602090610669610800610843565b6001600160a01b031660009081526001602052604090205490565b8284346104305760603660031901126104305750610669602092604435906024359035611ce6565b600435906001600160a01b038216820361085957565b600080fd5b35906001600160a01b038216820361085957565b610120810190811067ffffffffffffffff82111761088f57604052565b634e487b7160e01b600052604160045260246000fd5b90601f8019910116810190811067ffffffffffffffff82111761088f57604052565b67ffffffffffffffff811161088f57601f01601f191660200190565b81601f82011215610859578035906108fa826108c7565b9261090860405194856108a5565b8284526020838301011161085957816000926020809301838601378301015290565b359063ffffffff8216820361085957565b906101406003198301126108595760043567ffffffffffffffff81116108595761096b83610120926004016108e3565b9260231901126108595760405161098181610872565b6001600160a01b03602435818116810361085957825260443581811681036108595760208301526064359081168103610859576040820152608435606082015260a435600481101561085957608082015263ffffffff60c43581811681036108595760a083015260e4356001600160b01b03811681036108595760c08301526101043590811681036108595760e08201526101243560ff811681036108595761010082015290565b67ffffffffffffffff811161088f5760051b60200190565b90606091826003198201126108595760049267ffffffffffffffff843581811161085957836023820112156108595780860135610a7d81610a29565b604090610a8c825191826108a5565b8281526020938482016024809560051b8301019189831161085957858101915b838310610bd357505050509782359485116108595786602386011215610859578481013595610ada87610a29565b97610ae78451998a6108a5565b8789528589019480610120809a02890101978289116108595701945b878610610b1a575050505050505050509060443590565b888683031261085957845190610b2f82610872565b610b388761085e565b8252610b4588880161085e565b88830152610b5486880161085e565b86830152838701358483015260808088013590868210156108595783015260a0610b7f81890161092a565b9083015260c087810135906001600160b01b03821682036108595783015260e0610baa81890161092a565b9083015261010090818801359260ff84168403610859578b938a93820152815201950194610b03565b8235898111610859578891610bed8d8a85948701016108e3565b815201920191610aac565b6000546001600160a01b03163303610c0c57565b606460405162461bcd60e51b815260206004820152602060248201527f4f776e61626c653a2063616c6c6572206973206e6f7420746865206f776e65726044820152fd5b15610c5757565b60405162461bcd60e51b815260206004820152602b60248201527f7369676e61747572657320616e64206f7264657273206d75737420686176652060448201526a0e6c2daca40d8cadccee8d60ab1b6064820152608490fd5b6000198114610cbf5760010190565b634e487b7160e01b600052601160045260246000fd5b8051821015610ce95760209160051b010190565b634e487b7160e01b600052603260045260246000fd5b516004811015610d0c5790565b634e487b7160e01b600052602160045260246000fd5b91908203918211610cbf57565b90816020910312610859575180151581036108595790565b81610d5491939293611472565b90610d5e83611969565b15610859576000828152602090600282526040928382205490610d85826060890151610d22565b80821015610f665750955b8615610f5c57805160808201513392916001600160a01b03908116916004811015610f48579060018b9594939214610f3a575b8783015189516323b872dd60e01b8082526001600160a01b038781166004840152851660248301526044820197909752908990829060649082908c9087165af18015610f3057610e408d8b979695948b94670de0b6b3a764000094610f13575b50868e015160c0909701519616956001600160b01b031690610f7b565b8b519788526001600160a01b0393841660048901529490921660248701529204604485015283916064918391905af18015610f095794610ed6936002610eb38a84967fe96da7d7f9b1253f3f855c25f35f32d0a83a96c1a75acdecf0f3bc7cc3bb1ccf9b9996829b610edc575b50610f6e565b878352935220555191825233602083015260408201929092529081906060820190565b0390a190565b610efb90883d8a11610f02575b610ef381836108a5565b810190610d2f565b5038610ead565b503d610ee9565b85513d85823e3d90fd5b610f29908a3d8c11610f0257610ef381836108a5565b5038610e23565b8a513d8a823e3d90fd5b825181169350339150610dc3565b634e487b7160e01b87526021600452602487fd5b5050935050505090565b905095610d90565b91908201809211610cbf57565b81810292918115918404141715610cbf57565b8115610f98570490565b634e487b7160e01b600052601260045260246000fd5b6020808301516001600160a01b03908116600090815260059092526040808320548186015183168452922054811693911691610feb908290611472565b90610ff581611969565b15610859576000938260005260046020526040600020545b60ff6101008401511681101561122757606083015163ffffffff60e08501511690600183018311610cbf57611046916001840191611ce6565b8460005260036020526040600020549081156112df575b6110678282610d22565b808a10156112d4575061107b898099610f6e565b98899860018060a01b03875116339060808901516004811015610d0c5760011480156112bd575b6112aa575b6020898101516040516323b872dd60e01b81526001600160a01b0385811660048301528481166024830152604482018790529093929184916064918391600091165af1801561128157611172936020938c9261128d575b50604082015160c0909201516001600160a01b0390921691600090670de0b6b3a764000090611136906001600160b01b031689610f7b565b6040516323b872dd60e01b81526001600160a01b0396871660048201529390951660248401529093046044820152938492839182906064820190565b03925af18015611281576111ef936111ac928492611262575b508a600052600360205260406000206111a5838254610f6e565b9055610d22565b604080518a81523360208201529081019c909c529a8b94907fe96da7d7f9b1253f3f855c25f35f32d0a83a96c1a75acdecf0f3bc7cc3bb1ccf90606090a1610f6e565b14611230575b6020848101516001600160a01b031660009081526001909152604090205410156112275761122290610cb0565b61100d565b50505050505090565b846000526004602052604060002080549060018201809211610cbf5755846000526003602052600060408120556111f5565b61127a9060203d602011610f0257610ef381836108a5565b503861118b565b6040513d6000823e3d90fd5b6112a390853d8711610f0257610ef381836108a5565b50386110fe565b505086516001600160a01b0316336110a7565b5060808901516004811015610d0c576003146110a2565b61107b908099610f6e565b60c0850151819085908990670de0b6b3a764000090611307906001600160b01b031685610f7b565b049260808901516004811015610d0c5760031461143f575b620f4240918183810204831482151715610cbf5761134f6020926113889463ffffffff60e08e0151169102610f8e565b8a516040516361d8983f60e01b81526001600160a01b039091166004820152602481019190915292839190829060009082906044820190565b03926001600160a01b03165af1801561128157611414575b508651604051635267b05560e11b81526001600160a01b039182166004820152602481019390935260209183916044918391600091165af18015611281576113e9575b5061105d565b602090813d831161140d575b6113ff81836108a5565b8101031261085957386113e3565b503d6113f5565b602090813d8311611438575b61142a81836108a5565b8101031261085957386113a0565b503d611420565b5050505060c08501518490670de0b6b3a764000090611467906001600160b01b031684610f7b565b04908890839261131f565b9060018060a01b03918282511690836020840151169260409385858301511690606083015160808401516004811015610d0c57879363ffffffff918260a08801511690600160b01b6001900360c0890151169360e0890151169461010093848a015160ff169789519c8d9a60208c019b7f4e0653ab806c929ee2b9ffd833f4f44bb6a40e749b1947288629dcdbfb3eca0f8d52015260608d015260808c015260a08b015260ff1660c08a015260e08901528701526101208601526101409081860152845261016084019367ffffffffffffffff948181108682111761088f57865251902061155e6117f2565b90855190602082019261190160f01b8452602283015260428201526042815260808101948186109086111761088f576115a094865251902094859151166115e0565b156115a9575090565b5162461bcd60e51b8152602060048201526011602482015270696e76616c6964207369676e617475726560781b6044820152606490fd5b6115ea8383611705565b6005811015610d0c571590816116ef575b506116e7576040519260209384810191630b135d3f60e11b948584526024830152604060448301528051908160648401528660005b8381106116d257505050918161166660848286600083819a9899829a010152601f801991011681010360648101845201826108a5565b51915afa913d156116cb573d61167b816108c7565b9061168960405192836108a5565b81523d60008383013e5b836116c0575b836116a5575b50505090565b9080929350818051810103126108595701511438808061169f565b805182149350611699565b6060611693565b81818401015160848287010152018790611630565b505050600190565b6001600160a01b038381169116149050386115fb565b9060418151146000146117335761172f916020820151906060604084015193015160001a9061173d565b9091565b5050600090600290565b9291907f7fffffffffffffffffffffffffffffff5d576e7357a4501ddfe92f46681b20a083116117e65760ff16601b811415806117db575b6117cf579160809493916020936040519384528484015260408301526060820152600093849182805260015afa156117c25781516001600160a01b038116156117bc579190565b50600190565b50604051903d90823e3d90fd5b50505050600090600490565b50601c811415611775565b50505050600090600390565b307f00000000000000000000000000000000000000000000000000000000000000006001600160a01b031614806118f4575b1561184d577f000000000000000000000000000000000000000000000000000000000000000090565b60405160208101907f000000000000000000000000000000000000000000000000000000000000000082527f000000000000000000000000000000000000000000000000000000000000000060408201527f000000000000000000000000000000000000000000000000000000000000000060608201524660808201523060a082015260a0815260c0810181811067ffffffffffffffff82111761088f5760405251902090565b507f00000000000000000000000000000000000000000000000000000000000000004614611824565b1561192457565b60405162461bcd60e51b815260206004820152601a60248201527f4d617267696e2074726164696e67206e6f7420656e61626c65640000000000006044820152606490fd5b606081015115611c965760c08101516001600160b01b031615611c4557608081019081519160049283811015611c3057600214908115611c07575b50611aab575b60208101805190916001600160a01b0391821615611a6e57604001918183511615611a315781905116915116146119e15750600190565b60849060206040519162461bcd60e51b8352820152602360248201527f746f6b656e3020616e6420746f6b656e31206d75737420626520646966666572604482015262195b9d60ea1b6064820152fd5b60405162461bcd60e51b81526020818601526016602482015275496e76616c696420746f6b656e31206164647265737360501b6044820152606490fd5b60405162461bcd60e51b81526020818601526016602482015275496e76616c696420746f6b656e30206164647265737360501b6044820152606490fd5b60e0810163ffffffff908181511615611bb85751620f424091161015611b6a5760ff6101008201511615611b2657611b2160018060a01b03806020840151166000526005602052611b048160406000205416151561191d565b80604084015116600052600560205260406000205416151561191d565b6119aa565b60405162461bcd60e51b8152602081840152601f60248201527f6c65766572616765206d7573742062652067726561746572207468616e2030006044820152606490fd5b60405162461bcd60e51b8152602081840152602160248201527f626f72726f774c696d6974206d757374206265206c657373207468616e2031656044820152601b60f91b6064820152608490fd5b60405162461bcd60e51b8152602081860152602260248201527f426f72726f774c696d6974206d7573742062652067726561746572207468616e604482015261020360f41b6064820152608490fd5b90505182811015611c1b57600314386119a4565b602183634e487b7160e01b6000525260246000fd5b602184634e487b7160e01b6000525260246000fd5b60405162461bcd60e51b815260206004820152602360248201527f45786368616e676552617465206d75737420626520677265617465722074686160448201526206e20360ec1b6064820152608490fd5b60405162461bcd60e51b815260206004820152602260248201527f4f72646572416d6f756e74206d7573742062652067726561746572207468616e604482015261020360f41b6064820152608490fd5b916000915b818310611cf85750505090565b909192620f4240611d0c83611d1393610f7b565b0493610cb0565b9190611ceb56fea26469706673582212202937129c5b0364ba1ed8d924abc59fc66960f6d438226f4e6b29fa96b21a02b764736f6c63430008110033",
  "linkReferences": {},
  "deployedLinkReferences": {}
}