{
  "_format": "hh-sol-artifact-1",
  "contractName": "Exchange",
  "sourceName": "contracts/Exchange.sol",
  "abi": [
    {
      "inputs": [],
      "stateMutability": "nonpayable",
      "type": "constructor"
    },
    {
      "anonymous": false,
      "inputs": [
        {
          "indexed": false,
          "internalType": "address",
          "name": "token",
          "type": "address"
        },
        {
          "indexed": false,
          "internalType": "address",
          "name": "cToken",
          "type": "address"
        }
      ],
      "name": "MarginEnabled",
      "type": "event"
    },
    {
      "anonymous": false,
      "inputs": [
        {
          "indexed": false,
          "internalType": "bytes32",
          "name": "orderId",
          "type": "bytes32"
        }
      ],
      "name": "OrderCancelled",
      "type": "event"
    },
    {
      "anonymous": false,
      "inputs": [
        {
          "indexed": false,
          "internalType": "bytes32",
          "name": "orderId",
          "type": "bytes32"
        },
        {
          "indexed": false,
          "internalType": "address",
          "name": "maker",
          "type": "address"
        },
        {
          "indexed": false,
          "internalType": "address",
          "name": "token0",
          "type": "address"
        },
        {
          "indexed": false,
          "internalType": "address",
          "name": "token1",
          "type": "address"
        },
        {
          "indexed": false,
          "internalType": "uint256",
          "name": "amount",
          "type": "uint256"
        },
        {
          "indexed": false,
          "internalType": "uint216",
          "name": "_exchangeRate",
          "type": "uint216"
        },
        {
          "indexed": false,
          "internalType": "bool",
          "name": "buy",
          "type": "bool"
        },
        {
          "indexed": false,
          "internalType": "uint32",
          "name": "salt",
          "type": "uint32"
        }
      ],
      "name": "OrderCreated",
      "type": "event"
    },
    {
      "anonymous": false,
      "inputs": [
        {
          "indexed": false,
          "internalType": "bytes32",
          "name": "orderId",
          "type": "bytes32"
        },
        {
          "indexed": false,
          "internalType": "address",
          "name": "taker",
          "type": "address"
        },
        {
          "indexed": false,
          "internalType": "uint256",
          "name": "fillAmount",
          "type": "uint256"
        }
      ],
      "name": "OrderExecuted",
      "type": "event"
    },
    {
      "anonymous": false,
      "inputs": [
        {
          "indexed": false,
          "internalType": "bytes32",
          "name": "orderId",
          "type": "bytes32"
        },
        {
          "indexed": false,
          "internalType": "uint256",
          "name": "amount",
          "type": "uint256"
        },
        {
          "indexed": false,
          "internalType": "uint256",
          "name": "_exchangeRate",
          "type": "uint256"
        }
      ],
      "name": "OrderUpdated",
      "type": "event"
    },
    {
      "anonymous": false,
      "inputs": [
        {
          "indexed": true,
          "internalType": "address",
          "name": "previousOwner",
          "type": "address"
        },
        {
          "indexed": true,
          "internalType": "address",
          "name": "newOwner",
          "type": "address"
        }
      ],
      "name": "OwnershipTransferred",
      "type": "event"
    },
    {
      "anonymous": false,
      "inputs": [
        {
          "indexed": false,
          "internalType": "bytes32",
          "name": "pairId",
          "type": "bytes32"
        },
        {
          "indexed": false,
          "internalType": "address",
          "name": "token0",
          "type": "address"
        },
        {
          "indexed": false,
          "internalType": "address",
          "name": "token1",
          "type": "address"
        },
        {
          "indexed": false,
          "internalType": "uint256",
          "name": "exchangeRateDecimals",
          "type": "uint256"
        },
        {
          "indexed": false,
          "internalType": "uint256",
          "name": "minToken0Order",
          "type": "uint256"
        },
        {
          "indexed": false,
          "internalType": "uint256",
          "name": "minToken1Order",
          "type": "uint256"
        }
      ],
      "name": "PairCreated",
      "type": "event"
    },
    {
      "inputs": [
        {
          "internalType": "address",
          "name": "token",
          "type": "address"
        },
        {
          "internalType": "uint256",
          "name": "amount",
          "type": "uint256"
        }
      ],
      "name": "borrow",
      "outputs": [],
      "stateMutability": "nonpayable",
      "type": "function"
    },
    {
      "inputs": [
        {
          "internalType": "bytes",
          "name": "signature",
          "type": "bytes"
        },
        {
          "components": [
            {
              "internalType": "address",
              "name": "maker",
              "type": "address"
            },
            {
              "internalType": "address",
              "name": "token0",
              "type": "address"
            },
            {
              "internalType": "address",
              "name": "token1",
              "type": "address"
            },
            {
              "internalType": "uint256",
              "name": "amount",
              "type": "uint256"
            },
            {
              "internalType": "enum IExchange.OrderType",
              "name": "orderType",
              "type": "uint8"
            },
            {
              "internalType": "uint32",
              "name": "salt",
              "type": "uint32"
            },
            {
              "internalType": "uint176",
              "name": "exchangeRate",
              "type": "uint176"
            },
            {
              "internalType": "uint32",
              "name": "borrowLimit",
              "type": "uint32"
            },
            {
              "internalType": "uint8",
              "name": "loops",
              "type": "uint8"
            }
          ],
          "internalType": "struct IExchange.Order",
          "name": "order",
          "type": "tuple"
        }
      ],
      "name": "cancelOrder",
      "outputs": [],
      "stateMutability": "nonpayable",
      "type": "function"
    },
    {
      "inputs": [
        {
          "internalType": "address",
          "name": "asset",
          "type": "address"
        },
        {
          "internalType": "address",
          "name": "from",
          "type": "address"
        },
        {
          "internalType": "uint256",
          "name": "amount",
          "type": "uint256"
        }
      ],
      "name": "doTransferIn",
      "outputs": [
        {
          "internalType": "uint256",
          "name": "",
          "type": "uint256"
        }
      ],
      "stateMutability": "nonpayable",
      "type": "function"
    },
    {
      "inputs": [
        {
          "internalType": "address",
          "name": "asset",
          "type": "address"
        },
        {
          "internalType": "address payable",
          "name": "to",
          "type": "address"
        },
        {
          "internalType": "uint256",
          "name": "amount",
          "type": "uint256"
        }
      ],
      "name": "doTransferOut",
      "outputs": [],
      "stateMutability": "nonpayable",
      "type": "function"
    },
    {
      "inputs": [
        {
          "internalType": "address",
          "name": "token",
          "type": "address"
        },
        {
          "internalType": "address",
          "name": "cToken",
          "type": "address"
        },
        {
          "internalType": "uint256",
          "name": "minAmount",
          "type": "uint256"
        }
      ],
      "name": "enableMarginTrading",
      "outputs": [],
      "stateMutability": "nonpayable",
      "type": "function"
    },
    {
      "inputs": [
        {
          "internalType": "bytes[]",
          "name": "signatures",
          "type": "bytes[]"
        },
        {
          "components": [
            {
              "internalType": "address",
              "name": "maker",
              "type": "address"
            },
            {
              "internalType": "address",
              "name": "token0",
              "type": "address"
            },
            {
              "internalType": "address",
              "name": "token1",
              "type": "address"
            },
            {
              "internalType": "uint256",
              "name": "amount",
              "type": "uint256"
            },
            {
              "internalType": "enum IExchange.OrderType",
              "name": "orderType",
              "type": "uint8"
            },
            {
              "internalType": "uint32",
              "name": "salt",
              "type": "uint32"
            },
            {
              "internalType": "uint176",
              "name": "exchangeRate",
              "type": "uint176"
            },
            {
              "internalType": "uint32",
              "name": "borrowLimit",
              "type": "uint32"
            },
            {
              "internalType": "uint8",
              "name": "loops",
              "type": "uint8"
            }
          ],
          "internalType": "struct IExchange.Order[]",
          "name": "orders",
          "type": "tuple[]"
        },
        {
          "internalType": "uint256",
          "name": "token0AmountToFill",
          "type": "uint256"
        }
      ],
      "name": "executeLimitOrders",
      "outputs": [],
      "stateMutability": "nonpayable",
      "type": "function"
    },
    {
      "inputs": [
        {
          "internalType": "bytes[]",
          "name": "signatures",
          "type": "bytes[]"
        },
        {
          "components": [
            {
              "internalType": "address",
              "name": "maker",
              "type": "address"
            },
            {
              "internalType": "address",
              "name": "token0",
              "type": "address"
            },
            {
              "internalType": "address",
              "name": "token1",
              "type": "address"
            },
            {
              "internalType": "uint256",
              "name": "amount",
              "type": "uint256"
            },
            {
              "internalType": "enum IExchange.OrderType",
              "name": "orderType",
              "type": "uint8"
            },
            {
              "internalType": "uint32",
              "name": "salt",
              "type": "uint32"
            },
            {
              "internalType": "uint176",
              "name": "exchangeRate",
              "type": "uint176"
            },
            {
              "internalType": "uint32",
              "name": "borrowLimit",
              "type": "uint32"
            },
            {
              "internalType": "uint8",
              "name": "loops",
              "type": "uint8"
            }
          ],
          "internalType": "struct IExchange.Order[]",
          "name": "orders",
          "type": "tuple[]"
        },
        {
          "internalType": "uint256",
          "name": "token1AmountToFill",
          "type": "uint256"
        }
      ],
      "name": "executeMarketOrders",
      "outputs": [],
      "stateMutability": "nonpayable",
      "type": "function"
    },
    {
      "inputs": [
        {
          "internalType": "bytes32",
          "name": "digest",
          "type": "bytes32"
        }
      ],
      "name": "loopFill",
      "outputs": [
        {
          "internalType": "uint256",
          "name": "",
          "type": "uint256"
        }
      ],
      "stateMutability": "view",
      "type": "function"
    },
    {
      "inputs": [
        {
          "internalType": "bytes32",
          "name": "digest",
          "type": "bytes32"
        }
      ],
      "name": "loops",
      "outputs": [
        {
          "internalType": "uint256",
          "name": "",
          "type": "uint256"
        }
      ],
      "stateMutability": "view",
      "type": "function"
    },
    {
      "inputs": [],
      "name": "makerFee",
      "outputs": [
        {
          "internalType": "uint256",
          "name": "",
          "type": "uint256"
        }
      ],
      "stateMutability": "view",
      "type": "function"
    },
    {
      "inputs": [
        {
          "internalType": "address",
          "name": "token",
          "type": "address"
        }
      ],
      "name": "minTokenAmount",
      "outputs": [
        {
          "internalType": "uint256",
          "name": "",
          "type": "uint256"
        }
      ],
      "stateMutability": "view",
      "type": "function"
    },
    {
      "inputs": [
        {
          "internalType": "address",
          "name": "token",
          "type": "address"
        },
        {
          "internalType": "uint256",
          "name": "amount",
          "type": "uint256"
        }
      ],
      "name": "mint",
      "outputs": [],
      "stateMutability": "nonpayable",
      "type": "function"
    },
    {
      "inputs": [
        {
          "internalType": "bytes32",
          "name": "digest",
          "type": "bytes32"
        }
      ],
      "name": "orderFills",
      "outputs": [
        {
          "internalType": "uint256",
          "name": "",
          "type": "uint256"
        }
      ],
      "stateMutability": "view",
      "type": "function"
    },
    {
      "inputs": [],
      "name": "owner",
      "outputs": [
        {
          "internalType": "address",
          "name": "",
          "type": "address"
        }
      ],
      "stateMutability": "view",
      "type": "function"
    },
    {
      "inputs": [
        {
          "internalType": "address",
          "name": "token",
          "type": "address"
        },
        {
          "internalType": "uint256",
          "name": "amount",
          "type": "uint256"
        }
      ],
      "name": "redeem",
      "outputs": [],
      "stateMutability": "nonpayable",
      "type": "function"
    },
    {
      "inputs": [],
      "name": "renounceOwnership",
      "outputs": [],
      "stateMutability": "nonpayable",
      "type": "function"
    },
    {
      "inputs": [
        {
          "internalType": "address",
          "name": "token",
          "type": "address"
        },
        {
          "internalType": "uint256",
          "name": "amount",
          "type": "uint256"
        }
      ],
      "name": "repay",
      "outputs": [],
      "stateMutability": "nonpayable",
      "type": "function"
    },
    {
      "inputs": [
        {
          "internalType": "uint256",
          "name": "amount",
          "type": "uint256"
        },
        {
          "internalType": "uint256",
          "name": "borrowLimit",
          "type": "uint256"
        },
        {
          "internalType": "uint256",
          "name": "loop",
          "type": "uint256"
        }
      ],
      "name": "scaledByBorrowLimit",
      "outputs": [
        {
          "internalType": "uint256",
          "name": "",
          "type": "uint256"
        }
      ],
      "stateMutability": "pure",
      "type": "function"
    },
    {
      "inputs": [],
      "name": "takerFee",
      "outputs": [
        {
          "internalType": "uint256",
          "name": "",
          "type": "uint256"
        }
      ],
      "stateMutability": "view",
      "type": "function"
    },
    {
      "inputs": [
        {
          "internalType": "address",
          "name": "newOwner",
          "type": "address"
        }
      ],
      "name": "transferOwnership",
      "outputs": [],
      "stateMutability": "nonpayable",
      "type": "function"
    },
    {
      "inputs": [
        {
          "components": [
            {
              "internalType": "address",
              "name": "maker",
              "type": "address"
            },
            {
              "internalType": "address",
              "name": "token0",
              "type": "address"
            },
            {
              "internalType": "address",
              "name": "token1",
              "type": "address"
            },
            {
              "internalType": "uint256",
              "name": "amount",
              "type": "uint256"
            },
            {
              "internalType": "enum IExchange.OrderType",
              "name": "orderType",
              "type": "uint8"
            },
            {
              "internalType": "uint32",
              "name": "salt",
              "type": "uint32"
            },
            {
              "internalType": "uint176",
              "name": "exchangeRate",
              "type": "uint176"
            },
            {
              "internalType": "uint32",
              "name": "borrowLimit",
              "type": "uint32"
            },
            {
              "internalType": "uint8",
              "name": "loops",
              "type": "uint8"
            }
          ],
          "internalType": "struct IExchange.Order",
          "name": "order",
          "type": "tuple"
        }
      ],
      "name": "validateOrder",
      "outputs": [
        {
          "internalType": "bool",
          "name": "",
          "type": "bool"
        }
      ],
      "stateMutability": "view",
      "type": "function"
    },
    {
      "inputs": [
        {
          "internalType": "bytes",
          "name": "signature",
          "type": "bytes"
        },
        {
          "components": [
            {
              "internalType": "address",
              "name": "maker",
              "type": "address"
            },
            {
              "internalType": "address",
              "name": "token0",
              "type": "address"
            },
            {
              "internalType": "address",
              "name": "token1",
              "type": "address"
            },
            {
              "internalType": "uint256",
              "name": "amount",
              "type": "uint256"
            },
            {
              "internalType": "enum IExchange.OrderType",
              "name": "orderType",
              "type": "uint8"
            },
            {
              "internalType": "uint32",
              "name": "salt",
              "type": "uint32"
            },
            {
              "internalType": "uint176",
              "name": "exchangeRate",
              "type": "uint176"
            },
            {
              "internalType": "uint32",
              "name": "borrowLimit",
              "type": "uint32"
            },
            {
              "internalType": "uint8",
              "name": "loops",
              "type": "uint8"
            }
          ],
          "internalType": "struct IExchange.Order",
          "name": "order",
          "type": "tuple"
        }
      ],
      "name": "verifyOrderHash",
      "outputs": [
        {
          "internalType": "bytes32",
          "name": "",
          "type": "bytes32"
        }
      ],
      "stateMutability": "view",
      "type": "function"
    }
  ],
  "bytecode": "0x6101408060405234620001795762000017816200017e565b60048152600160208201637a65786560e01b815260206040516200003b816200017e565b8381520192603160f81b845251902091208160e052610100918183524660a0526040519160208301907f8b73c3c69bb8fe3d512ecc4cf759cc79239f7b179b0ffacaa9a75d522b39400f92838352604085015260608401524660808401523060a084015260a0835260c083019280841060018060401b03851117620001635760408490525190206080523060c05261012090815260008054336001600160a01b0319821681178355916001600160a01b03909116907f8be0079c531659141344cd1fd0a4f28419497f9722a3daafe3b4186f6b6457e09080a3670de0b6b3a76400008060065560075561299292836200019b84396080518361241b015260a051836124d6015260c051836123e5015260e0518361246a01525182612490015251816124470152f35b634e487b7160e01b600052604160045260246000fd5b600080fd5b604081019081106001600160401b03821117620001635760405256fe60806040526004361015610013575b600080fd5b60003560e01c80631251cd45146101cb5780631bceb8d4146101c25780631e9a6950146101b957806322867d78146101b057806338b786a3146101a757806340c10f191461019e57806343f0179b146101955780634b8a35291461018c5780634ca58b11146101835780635728e1611461017a578063715018a6146101715780637ddd6daf146101685780638da5cb5b1461015f578063973b03e614610156578063bed29b631461014d578063c37f7f7f14610144578063c66c25361461013b578063d212ae5214610132578063e290ea8a14610129578063f2fde38b14610120578063f7213db6146101175763fc741c7c1461010f57600080fd5b61000e611336565b5061000e61130f565b5061000e611247565b5061000e61111c565b5061000e611080565b5061000e610fbf565b5061000e610e28565b5061000e610e01565b5061000e610da8565b5061000e610d7e565b5061000e610ca1565b5061000e610a6b565b5061000e610a44565b5061000e610a18565b5061000e6106a0565b5061000e610681565b5061000e6105b3565b5061000e61049d565b5061000e6103ae565b5061000e610288565b5061000e61024a565b503461000e57606036600319011261000e5760206101f0604435602435600435612928565b604051908152f35b6001600160a01b0381160361000e57565b60043590610216826101f8565b565b60243590610216826101f8565b60443590610216826101f8565b60643590610216826101f8565b3590610216826101f8565b503461000e57602036600319011261000e5760206101f060043561026d816101f8565b6001600160a01b031660009081526001602052604090205490565b503461000e57604036600319011261000e57610371600060206103566004356102b0816101f8565b60243561032c6103236102f46102e86102db8660018060a01b03166000526005602052604060002090565b546001600160a01b031690565b6001600160a01b031690565b936103096001600160a01b03861615156119ef565b6001600160a01b0316600090815260016020526040902090565b54821015611a3b565b6040516301e9a69560e41b8152336004820152602481019190915293849283919082906044820190565b03925af19081156103a1575b600091610373575b5015611ac3565b005b610394915060203d811161039a575b61038c81836107b7565b810190611a7a565b3861036a565b503d610382565b6103a96114df565b610362565b503461000e57604036600319011261000e576103716000602061042b6004356103d6816101f8565b6024356104016103236102f46102e86102db8660018060a01b03166000526005602052604060002090565b60405163157b6bd560e31b8152336004820152602481019190915293849283919082906044820190565b03925af1908115610464575b600091610446575b5015611b3b565b61045e915060203d811161039a5761038c81836107b7565b3861043f565b61046c6114df565b610437565b606090600319011261000e57600435610489816101f8565b90602435610496816101f8565b9060443590565b503461000e577f51d94f40b0b92318fe811ce606c1fb8b340724e59936221206e511d53f2be8856104cd36610471565b6104d8929192611355565b610545600460018060a01b0360208187166105058760018060a01b03166000526005602052604060002090565b80546001600160a01b03191682179055604051636f307dc360e01b815293849182905afa9182156105a6575b600092610576575b50808516911614611c23565b6001600160a01b039182166000818152600160209081526040918290209390935580519182529390921690820152a1005b61059891925060203d811161059f575b61059081836107b7565b810190611c0e565b9038610539565b503d610586565b6105ae6114df565b610531565b503461000e57604036600319011261000e57610371600060206106306004356105db816101f8565b6024356106066103236102f46102e86102db8660018060a01b03166000526005602052604060002090565b6040516340c10f1960e01b8152336004820152602481019190915293849283919082906044820190565b03925af1908115610669575b60009161064b575b5015611a89565b610663915060203d811161039a5761038c81836107b7565b38610644565b6106716114df565b61063c565b600091031261000e57565b503461000e57600036600319011261000e576020600754604051908152f35b503461000e57604036600319011261000e576103716000602061071d6004356106c8816101f8565b6024356106f36103236102f46102e86102db8660018060a01b03166000526005602052604060002090565b604051634b8a352960e01b8152336004820152602481019190915293849283919082906044820190565b03925af1908115610756575b600091610738575b5015611aff565b610750915060203d811161039a5761038c81836107b7565b38610731565b61075e6114df565b610729565b50634e487b7160e01b600052604160045260246000fd5b67ffffffffffffffff811161078e57604052565b610796610763565b604052565b60c0810190811067ffffffffffffffff82111761078e57604052565b90601f8019910116810190811067ffffffffffffffff82111761078e57604052565b60405190610120820182811067ffffffffffffffff82111761078e57604052565b60209067ffffffffffffffff8111610818575b601f01601f19160190565b610820610763565b61080d565b81601f8201121561000e5780359061083c826107fa565b9261084a60405194856107b7565b8284526020838301011161000e57816000926020809301838601378301015290565b60843590600482101561000e57565b60a43590600482101561000e57565b3590600482101561000e57565b60a4359063ffffffff8216820361000e57565b60e4359063ffffffff8216820361000e57565b60c4359063ffffffff8216820361000e57565b610104359063ffffffff8216820361000e57565b359063ffffffff8216820361000e57565b60c435906001600160b01b038216820361000e57565b60e435906001600160b01b038216820361000e57565b35906001600160b01b038216820361000e57565b610104359060ff8216820361000e57565b610124359060ff8216820361000e57565b359060ff8216820361000e57565b9061014060031983011261000e5760043567ffffffffffffffff811161000e576109958361012092600401610825565b92602319011261000e576109a76107d9565b6109af610218565b81526109b9610225565b60208201526109c6610232565b604082015260843560608201526109db61087b565b60808201526109e86108bd565b60a08201526109f561090b565b60c0820152610a026108d0565b60e0820152610a0f610946565b61010082015290565b503461000e5760206101f0610a2c36610965565b90611fff565b602090600319011261000e5760043590565b503461000e57610a5336610a32565b60005260046020526020604060002054604051908152f35b503461000e57600080600319360112610ac757610a86611355565b80546001600160a01b03198116825581906001600160a01b03167f8be0079c531659141344cd1fd0a4f28419497f9722a3daafe3b4186f6b6457e08280a380f35b80fd5b60209067ffffffffffffffff8111610ae4575b60051b0190565b610aec610763565b610add565b81601f8201121561000e57803590610b0882610aca565b92604090610b18825195866107b7565b83855260209182860191836101208097028601019481861161000e578401925b858410610b49575050505050505090565b868483031261000e57848791610b5d6107d9565b610b668761023f565b8152610b7383880161023f565b83820152610b8286880161023f565b86820152606080880135908201526080610b9d81890161088a565b9082015260a0610bae8189016108e4565b9082015260c0610bbf818901610921565b9082015260e0610bd08189016108e4565b90820152610100610be2818901610957565b90820152815201930192610b38565b90606060031983011261000e576004359167ffffffffffffffff9081841161000e578060238501121561000e57836004013593610c2d85610aca565b90610c3b60405192836107b7565b8582526020908183016024809860051b8301019185831161000e57888101915b838310610c7c575050505050933591821161000e5761049691600401610af1565b823588811161000e578591610c96898d8594870101610825565b815201920191610c5b565b503461000e57610cb036610bf1565b919091610cc082518451146113ad565b6000905b835182101561037157610d26906080610ce881610ce18689611440565b5101611493565b610cf181611481565b15908115610d5c575b5015610d3c57610d2081610d0e8587611440565b51610d198689611440565b51906114ec565b906114ab565b90811561037157610d3690611424565b90610cc4565b610d2081610d4a8587611440565b51610d558689611440565b51906117c6565b60019150610d6e90610ce18689611440565b610d7781611481565b1438610cfa565b503461000e57600036600319011261000e576000546040516001600160a01b039091168152602090f35b503461000e577f5152abf959f6564662358c2e52b702259b78bac5ee7842a0f01937e670efcc7d6020610de76060610ddf36610965565b809391611fff565b9101518160005260028352604060002055604051908152a1005b503461000e57610e1036610a32565b60005260036020526020604060002054604051908152f35b503461000e57610e3736610471565b6040516370a0823160e01b8082523060048301526001600160a01b0394909416939290916020918284602481895afa938415610fb2575b600094610f93575b50853b1561000e576040516323b872dd60e01b81526001600160a01b03919091166004820152306024820152604481019190915260008160648183895af18015610f86575b610f6d575b503d8015610f5857602014610ed457600080fd5b610f2a9381610f1a94816000803e610eed600051611b76565b60405190815230600482015291829060249082905afa918215610f4b575b600092610f2e575b50506114ab565b6040519081529081906020820190565b0390f35b610f449250803d1061039a5761038c81836107b7565b3880610f13565b610f536114df565b610f0b565b50610f2a9381610f1a94610eed600019611b76565b80610f7a610f809261077a565b80610676565b38610ec0565b610f8e6114df565b610ebb565b610fab919450833d851161039a5761038c81836107b7565b9238610e76565b610fba6114df565b610e6e565b503461000e57606036600319011261000e57600435610fdd816101f8565b602435610fe9816101f8565b6001600160a01b03918216803b1561000e5760405192839263a9059cbb60e01b845216600483015260443560248301528160446000948580945af18015611073575b611060575b503d8015611054576020146110425780fd5b602081803e6110518151611bc2565b80f35b50611051600019611bc2565b80610f7a61106d9261077a565b38611030565b61107b6114df565b61102b565b503461000e5761012036600319011261000e5760206111126110a06107d9565b6110a8610209565b81526110b2610218565b838201526110be610225565b604082015260643560608201526110d361086c565b60808201526110e0610897565b60a08201526110ed6108f5565b60c08201526110fa6108aa565b60e0820152611107610935565b610100820152612786565b6040519015158152f35b503461000e5761112b36610bf1565b9161113981518351146113ad565b6000925b8251841015610371576111f76111e96111e36111856111d86111976111628a9761175e565b6111916111858b61117660c09e8f92611440565b5101516001600160b01b031690565b6001600160b01b031690565b906117a6565b60806111a781610ce18a8d611440565b6111b081611481565b15908115611225575b501561120c57610d20816111cd898b611440565b51610d198a8d611440565b976111768689611440565b86611793565b670de0b6b3a7640000900490565b93156103715761120690611424565b9261113d565b610d208161121a898b611440565b51610d558a8d611440565b6001915061123790610ce18a8d611440565b61124081611481565b14386111b9565b503461000e57602036600319011261000e57600435611265816101f8565b61126d611355565b6001600160a01b0390811680156112bb57600080546001600160a01b03198116831782559092167f8be0079c531659141344cd1fd0a4f28419497f9722a3daafe3b4186f6b6457e08380a380f35b60405162461bcd60e51b815260206004820152602660248201527f4f776e61626c653a206e6577206f776e657220697320746865207a65726f206160448201526564647265737360d01b6064820152608490fd5b503461000e5761131e36610a32565b60005260026020526020604060002054604051908152f35b503461000e57600036600319011261000e576020600654604051908152f35b6000546001600160a01b0316330361136957565b606460405162461bcd60e51b815260206004820152602060248201527f4f776e61626c653a2063616c6c6572206973206e6f7420746865206f776e65726044820152fd5b156113b457565b60405162461bcd60e51b815260206004820152602b60248201527f7369676e61747572657320616e64206f7264657273206d75737420686176652060448201526a0e6c2daca40d8cadccee8d60ab1b6064820152608490fd5b50634e487b7160e01b600052601160045260246000fd5b6001906000198114611434570190565b61143c61140d565b0190565b80518210156114545760209160051b010190565b634e487b7160e01b600052603260045260246000fd5b50634e487b7160e01b600052602160045260246000fd5b6004111561148b57565b61021661146a565b5160048110156114a05790565b6114a861146a565b90565b919082039182116114b857565b61021661140d565b1561000e57565b9081602091031261000e5751801515810361000e5790565b506040513d6000823e3d90fd5b816114f991939293611fff565b9161150b61150682612786565b6114c0565b611538611522846000526002602052604060002090565b54926115328460608501516114ab565b90611731565b92831561172857611680847fe96da7d7f9b1253f3f855c25f35f32d0a83a96c1a75acdecf0f3bc7cc3bb1ccf94848261157881975160018060a01b031690565b336001608085015161158981611481565b61159281611481565b14611714575b60209384926115b56102e86102e88685015160018060a01b031690565b6040516323b872dd60e01b8082526001600160a01b038681166004840152841660248301526044820197909752908590829060649082906000905af18015611707575b6116ea575b50600061163c6111e961163661118560c06116276102e86102e860408b015160018060a01b031690565b9701516001600160b01b031690565b8b611793565b6040519687526001600160a01b039283166004880152919093166024860152604485015283918290816064810103925af180156116dd575b6116af575b5050611751565b611694826000526002602052604060002090565b5560408051918252336020830152810191909152606090a190565b816116ce92903d106116d6575b6116c681836107b7565b8101906114c7565b503880611679565b503d6116bc565b6116e56114df565b611674565b61170090853d87116116d6576116c681836107b7565b50386115fd565b61170f6114df565b6115f8565b505081516001600160a01b03163390611598565b50505050600090565b908082101561173e575090565b905090565b90600182018092116114b857565b919082018092116114b857565b90670de0b6b3a7640000918281029281840414901517156114b857565b90620f4240918281029281840414901517156114b857565b818102929181159184041417156114b857565b81156117b0570490565b634e487b7160e01b600052601260045260246000fd5b602082018051909291906117fc906102db906001600160a01b03165b6001600160a01b0316600090815260056020526040902090565b6040936118218461181b6102db6117e28984015160018060a01b031690565b94611fff565b9161182e61150686612786565b6000938497611847856000526004602052604060002090565b545b61186161185b6101008a015160ff1690565b60ff1690565b8110156119e25787899a61189b606083015161188460e085015163ffffffff1690565b9063ffffffff61189387611743565b921690612928565b906118b0896000526003602052604060002090565b549081156119d1575b896118c483856114ab565b6118ce9088611731565b968792836118db91611751565b97889681336118e992611c60565b6118fd836000526003602052604060002090565b8181549061190a91611751565b9055611915916114ab565b9e5190815233602082015260408101949094528d937fe96da7d7f9b1253f3f855c25f35f32d0a83a96c1a75acdecf0f3bc7cc3bb1ccf90606090a161195991611751565b14611996575b8551611973906001600160a01b031661026d565b101561198a5761198290611424565b989098611849565b50505050505050505090565b6119aa876000526004602052604060002090565b6119b48154611743565b9055876119cb886000526003602052604060002090565b5561195f565b6119dd8484898b611dfd565b6118b9565b5097505050505050505090565b156119f657565b60405162461bcd60e51b815260206004820152601a60248201527f4d617267696e2074726164696e67206e6f7420656e61626c65640000000000006044820152606490fd5b15611a4257565b60405162461bcd60e51b815260206004820152601060248201526f105b5bdd5b9d081d1bdbc81cdb585b1b60821b6044820152606490fd5b9081602091031261000e575190565b15611a9057565b60405162461bcd60e51b815260206004820152600b60248201526a135a5b9d0819985a5b195960aa1b6044820152606490fd5b15611aca57565b60405162461bcd60e51b815260206004820152600d60248201526c14995919595b4819985a5b1959609a1b6044820152606490fd5b15611b0657565b60405162461bcd60e51b815260206004820152600d60248201526c109bdc9c9bddc819985a5b1959609a1b6044820152606490fd5b15611b4257565b60405162461bcd60e51b815260206004820152600c60248201526b14995c185e4819985a5b195960a21b6044820152606490fd5b15611b7d57565b60405162461bcd60e51b815260206004820152601860248201527f544f4b454e5f5452414e534645525f494e5f4641494c454400000000000000006044820152606490fd5b15611bc957565b60405162461bcd60e51b815260206004820152601960248201527f544f4b454e5f5452414e534645525f4f55545f4641494c4544000000000000006044820152606490fd5b9081602091031261000e57516114a8816101f8565b15611c2a57565b60405162461bcd60e51b815260206004820152600e60248201526d24b73b30b634b21031aa37b5b2b760911b6044820152606490fd5b8051909291906001600160a01b031690806080850160018151611c8281611481565b611c8b81611481565b14908115611ddf575b50611dc9575b506020848101516040516323b872dd60e01b8082526001600160a01b03858116600484015280871660248401526044830188905293979096889691949193909291879183916064918391165a90600091f1600092611d39926111e9928015611dbc575b611d9f575b50611d3361118560c0611d246102e86102e860408c015160018060a01b031690565b9801516001600160b01b031690565b90611793565b6040519687526001600160a01b039283166004880152919093166024860152604485015283918290816064810103925af18015611d92575b611d79575050565b81611d8f92903d106116d6576116c681836107b7565b50565b611d9a6114df565b611d71565b611db590893d8b116116d6576116c681836107b7565b5038611d02565b611dc46114df565b611cfd565b84519092506001600160a01b0316905038611c9a565b6003915051611ded81611481565b611df681611481565b1438611c94565b90611f1b92611ebc9492808290849360c08701611e2f6111e9611e29611185845160018060b01b031690565b84611793565b96600360808a0151611e4081611481565b611e4981611481565b14611f7c575b50505050611ee5611e81611e6460009361177b565b611191611e7860e08a015163ffffffff1690565b63ffffffff1690565b86516040516340c10f1960e01b81526001600160a01b0390911660048201526024810191909152602098899791908890829081906044820190565b03818760018060a01b03809a165af18015611f6f575b611f52575b50516001600160a01b031690565b604051634b8a352960e01b81526001600160a01b0390911660048201526024810194909452929485938492909183906044820190565b0393165af18015611f45575b611f2f575050565b81611d8f92903d1061039a5761038c81836107b7565b611f4d6114df565b611f27565b611f6890883d8a1161039a5761038c81836107b7565b5038611ed7565b611f776114df565b611ed2565b9051929650909450925060009150611ee590611e8190611e6490611fb6906111e990611fb0906001600160b01b0316611185565b88611793565b96959693611e4f565b15611fc657565b60405162461bcd60e51b8152602060048201526011602482015270696e76616c6964207369676e617475726560781b6044820152606490fd5b61215f6114a89161215a9361214861201d825160018060a01b031690565b60208301516001600160a01b03166040840151612140906001600160a01b0316916121326060870151608088015161205481611481565b61205d81611481565b60a089015163ffffffff1660c08a01516001600160b01b03169061208860e08c015163ffffffff1690565b926120986101008d015160ff1690565b604080517f4e0653ab806c929ee2b9ffd833f4f44bb6a40e749b1947288629dcdbfb3eca0f602082019081526001600160a01b039d8e1692820192909252988c1660608a01529a909916608088015260a087019490945260ff93841660c087015263ffffffff90811660e08701526001600160b01b0390911661010086015216610120840152909316610140820152918290610160820190565b03601f1981018352826107b7565b51902061238c565b9051909485916001600160a01b031690565b6121e5565b611fbf565b90929192815260209260408483015280519081604084015260005b8281106121a157505060609293506000838284010152601f8019910116010190565b81810186015184820160600152850161217f565b3d156121e0573d906121c6826107fa565b916121d460405193846107b7565b82523d6000602084013e565b606090565b90916121f1818461229e565b6005811015612291575b15908161227b575b50612273576000918291604051612231816121326020820194630b135d3f60e11b998a875260248401612164565b51915afa9061223e6121b5565b82612267575b8261224e57505090565b61226391925060208082518301019101611a7a565b1490565b80516020149250612244565b505050600190565b6001600160a01b03848116911614905038612203565b61229961146a565b6121fb565b9060418151146000146122cc576122c8916020820151906060604084015193015160001a906122d6565b9091565b5050600090600290565b9291907f7fffffffffffffffffffffffffffffff5d576e7357a4501ddfe92f46681b20a083116123805760ff16601b81141580612375575b612369579160809493916020936040519384528484015260408301526060820152600093849182805260015afa1561235c575b81516001600160a01b03811615612356579190565b50600190565b6123646114df565b612341565b50505050600090600490565b50601c81141561230e565b50505050600090600390565b6123946123e2565b9060405190602082019261190160f01b845260228301526042820152604281526080810181811067ffffffffffffffff8211176123d5575b60405251902090565b6123dd610763565b6123cc565b307f00000000000000000000000000000000000000000000000000000000000000006001600160a01b031614806124d3575b1561243d577f000000000000000000000000000000000000000000000000000000000000000090565b60405160208101907f000000000000000000000000000000000000000000000000000000000000000082527f000000000000000000000000000000000000000000000000000000000000000060408201527f000000000000000000000000000000000000000000000000000000000000000060608201524660808201523060a082015260a081526124cd8161079b565b51902090565b507f00000000000000000000000000000000000000000000000000000000000000004614612414565b1561250357565b60405162461bcd60e51b815260206004820152602260248201527f4f72646572416d6f756e74206d7573742062652067726561746572207468616e604482015261020360f41b6064820152608490fd5b1561255a57565b60405162461bcd60e51b815260206004820152602360248201527f45786368616e676552617465206d75737420626520677265617465722074686160448201526206e20360ec1b6064820152608490fd5b156125b257565b60405162461bcd60e51b815260206004820152602260248201527f426f72726f774c696d6974206d7573742062652067726561746572207468616e604482015261020360f41b6064820152608490fd5b1561260957565b60405162461bcd60e51b815260206004820152602160248201527f626f72726f774c696d6974206d757374206265206c657373207468616e2031656044820152601b60f91b6064820152608490fd5b1561265f57565b60405162461bcd60e51b815260206004820152601f60248201527f6c65766572616765206d7573742062652067726561746572207468616e2030006044820152606490fd5b156126ab57565b60405162461bcd60e51b8152602060048201526016602482015275496e76616c696420746f6b656e30206164647265737360501b6044820152606490fd5b156126f057565b60405162461bcd60e51b8152602060048201526016602482015275496e76616c696420746f6b656e31206164647265737360501b6044820152606490fd5b1561273557565b60405162461bcd60e51b815260206004820152602360248201527f746f6b656e3020616e6420746f6b656e31206d75737420626520646966666572604482015262195b9d60ea1b6064820152608490fd5b61284f90612799606082015115156124fc565b60c08101516127b2906001600160b01b03161515612553565b60808101600281516127c381611481565b6127cc81611481565b1490811561290a575b50612854575b60208101805190916001600160a01b0391612846916102e8916128389160409161280890871615156126a4565b01805190959061282b90612824906001600160a01b03166102e8565b15156126e9565b516001600160a01b031690565b93516001600160a01b031690565b9116141561272e565b600190565b612893620f424060e0830161288c63ffffffff916128828361287a835163ffffffff1690565b1615156125ab565b5163ffffffff1690565b1610612602565b6128af60ff6128a761010084015160ff1690565b161515612658565b60208101516128dc906001600160a01b03906128d4906102e8906102db9084166117e2565b1615156119ef565b6129056128fe6102e86102e86102db6117e2604087015160018060a01b031690565b15156119ef565b6127db565b600391505161291881611481565b61292181611481565b14386127d5565b916000915b81831061293a5750505090565b909192620f424061294e8361295593611793565b0493611424565b919061292d56fea2646970667358221220983ff73542f572483f20e88e48fd8e37be07e6f82621b46a8c5dc06615726b0764736f6c63430008110033",
  "linkReferences": {},
  "deployedLinkReferences": {}
}